{
  "contractName": "CryptoSoccrToken",
  "abi": [
    {
      "constant": true,
      "inputs": [],
      "name": "promoCreatedCount",
      "outputs": [
        {
          "name": "",
          "type": "uint256"
        }
      ],
      "payable": false,
      "stateMutability": "view",
      "type": "function"
    },
    {
      "constant": true,
      "inputs": [],
      "name": "ceoAddress",
      "outputs": [
        {
          "name": "",
          "type": "address"
        }
      ],
      "payable": false,
      "stateMutability": "view",
      "type": "function"
    },
    {
      "constant": true,
      "inputs": [],
      "name": "NAME",
      "outputs": [
        {
          "name": "",
          "type": "string"
        }
      ],
      "payable": false,
      "stateMutability": "view",
      "type": "function"
    },
    {
      "constant": true,
      "inputs": [
        {
          "name": "",
          "type": "uint256"
        }
      ],
      "name": "playerIndexToApproved",
      "outputs": [
        {
          "name": "",
          "type": "address"
        }
      ],
      "payable": false,
      "stateMutability": "view",
      "type": "function"
    },
    {
      "constant": true,
      "inputs": [
        {
          "name": "",
          "type": "uint256"
        }
      ],
      "name": "playerIndexToOwner",
      "outputs": [
        {
          "name": "",
          "type": "address"
        }
      ],
      "payable": false,
      "stateMutability": "view",
      "type": "function"
    },
    {
      "constant": true,
      "inputs": [],
      "name": "SYMBOL",
      "outputs": [
        {
          "name": "",
          "type": "string"
        }
      ],
      "payable": false,
      "stateMutability": "view",
      "type": "function"
    },
    {
      "inputs": [],
      "payable": false,
      "stateMutability": "nonpayable",
      "type": "constructor"
    },
    {
      "anonymous": false,
      "inputs": [
        {
          "indexed": false,
          "name": "tokenId",
          "type": "uint256"
        },
        {
          "indexed": false,
          "name": "name",
          "type": "string"
        },
        {
          "indexed": false,
          "name": "owner",
          "type": "address"
        }
      ],
      "name": "Birth",
      "type": "event"
    },
    {
      "anonymous": false,
      "inputs": [
        {
          "indexed": false,
          "name": "tokenId",
          "type": "uint256"
        },
        {
          "indexed": false,
          "name": "oldOwner",
          "type": "address"
        },
        {
          "indexed": false,
          "name": "newOwner",
          "type": "address"
        }
      ],
      "name": "Snatch",
      "type": "event"
    },
    {
      "anonymous": false,
      "inputs": [
        {
          "indexed": true,
          "name": "tokenId",
          "type": "uint256"
        },
        {
          "indexed": false,
          "name": "oldPrice",
          "type": "uint256"
        },
        {
          "indexed": false,
          "name": "newPrice",
          "type": "uint256"
        },
        {
          "indexed": false,
          "name": "prevOwner",
          "type": "address"
        },
        {
          "indexed": true,
          "name": "winner",
          "type": "address"
        },
        {
          "indexed": false,
          "name": "name",
          "type": "string"
        }
      ],
      "name": "TokenSold",
      "type": "event"
    },
    {
      "anonymous": false,
      "inputs": [
        {
          "indexed": false,
          "name": "from",
          "type": "address"
        },
        {
          "indexed": false,
          "name": "to",
          "type": "address"
        },
        {
          "indexed": false,
          "name": "tokenId",
          "type": "uint256"
        }
      ],
      "name": "Transfer",
      "type": "event"
    },
    {
      "anonymous": false,
      "inputs": [
        {
          "indexed": true,
          "name": "owner",
          "type": "address"
        },
        {
          "indexed": true,
          "name": "approved",
          "type": "address"
        },
        {
          "indexed": false,
          "name": "tokenId",
          "type": "uint256"
        }
      ],
      "name": "Approval",
      "type": "event"
    },
    {
      "constant": false,
      "inputs": [
        {
          "name": "_to",
          "type": "address"
        },
        {
          "name": "_tokenId",
          "type": "uint256"
        }
      ],
      "name": "approve",
      "outputs": [],
      "payable": false,
      "stateMutability": "nonpayable",
      "type": "function"
    },
    {
      "constant": true,
      "inputs": [
        {
          "name": "_owner",
          "type": "address"
        }
      ],
      "name": "balanceOf",
      "outputs": [
        {
          "name": "balance",
          "type": "uint256"
        }
      ],
      "payable": false,
      "stateMutability": "view",
      "type": "function"
    },
    {
      "constant": false,
      "inputs": [
        {
          "name": "_owner",
          "type": "address"
        },
        {
          "name": "_name",
          "type": "string"
        },
        {
          "name": "_price",
          "type": "uint256"
        },
        {
          "name": "_internalPlayerId",
          "type": "uint256"
        }
      ],
      "name": "createPromoPlayer",
      "outputs": [],
      "payable": false,
      "stateMutability": "nonpayable",
      "type": "function"
    },
    {
      "constant": false,
      "inputs": [
        {
          "name": "_name",
          "type": "string"
        },
        {
          "name": "_internalPlayerId",
          "type": "uint256"
        }
      ],
      "name": "createContractPlayer",
      "outputs": [],
      "payable": false,
      "stateMutability": "nonpayable",
      "type": "function"
    },
    {
      "constant": true,
      "inputs": [
        {
          "name": "_tokenId",
          "type": "uint256"
        }
      ],
      "name": "getPlayer",
      "outputs": [
        {
          "name": "playerName",
          "type": "string"
        },
        {
          "name": "internalPlayerId",
          "type": "uint256"
        },
        {
          "name": "sellingPrice",
          "type": "uint256"
        },
        {
          "name": "owner",
          "type": "address"
        }
      ],
      "payable": false,
      "stateMutability": "view",
      "type": "function"
    },
    {
      "constant": true,
      "inputs": [],
      "name": "implementsERC721",
      "outputs": [
        {
          "name": "",
          "type": "bool"
        }
      ],
      "payable": false,
      "stateMutability": "pure",
      "type": "function"
    },
    {
      "constant": true,
      "inputs": [],
      "name": "name",
      "outputs": [
        {
          "name": "",
          "type": "string"
        }
      ],
      "payable": false,
      "stateMutability": "pure",
      "type": "function"
    },
    {
      "constant": true,
      "inputs": [
        {
          "name": "_tokenId",
          "type": "uint256"
        }
      ],
      "name": "ownerOf",
      "outputs": [
        {
          "name": "owner",
          "type": "address"
        }
      ],
      "payable": false,
      "stateMutability": "view",
      "type": "function"
    },
    {
      "constant": false,
      "inputs": [
        {
          "name": "_to",
          "type": "address"
        }
      ],
      "name": "payout",
      "outputs": [],
      "payable": false,
      "stateMutability": "nonpayable",
      "type": "function"
    },
    {
      "constant": false,
      "inputs": [
        {
          "name": "_tokenId",
          "type": "uint256"
        }
      ],
      "name": "purchase",
      "outputs": [],
      "payable": true,
      "stateMutability": "payable",
      "type": "function"
    },
    {
      "constant": true,
      "inputs": [
        {
          "name": "_tokenId",
          "type": "uint256"
        }
      ],
      "name": "priceOf",
      "outputs": [
        {
          "name": "price",
          "type": "uint256"
        }
      ],
      "payable": false,
      "stateMutability": "view",
      "type": "function"
    },
    {
      "constant": false,
      "inputs": [
        {
          "name": "_newCEO",
          "type": "address"
        }
      ],
      "name": "setCEO",
      "outputs": [],
      "payable": false,
      "stateMutability": "nonpayable",
      "type": "function"
    },
    {
      "constant": true,
      "inputs": [],
      "name": "symbol",
      "outputs": [
        {
          "name": "",
          "type": "string"
        }
      ],
      "payable": false,
      "stateMutability": "pure",
      "type": "function"
    },
    {
      "constant": false,
      "inputs": [
        {
          "name": "_tokenId",
          "type": "uint256"
        }
      ],
      "name": "takeOwnership",
      "outputs": [],
      "payable": false,
      "stateMutability": "nonpayable",
      "type": "function"
    },
    {
      "constant": true,
      "inputs": [
        {
          "name": "_owner",
          "type": "address"
        }
      ],
      "name": "tokensOfOwner",
      "outputs": [
        {
          "name": "ownerTokens",
          "type": "uint256[]"
        }
      ],
      "payable": false,
      "stateMutability": "view",
      "type": "function"
    },
    {
      "constant": true,
      "inputs": [],
      "name": "totalSupply",
      "outputs": [
        {
          "name": "total",
          "type": "uint256"
        }
      ],
      "payable": false,
      "stateMutability": "view",
      "type": "function"
    },
    {
      "constant": false,
      "inputs": [
        {
          "name": "_to",
          "type": "address"
        },
        {
          "name": "_tokenId",
          "type": "uint256"
        }
      ],
      "name": "transfer",
      "outputs": [],
      "payable": false,
      "stateMutability": "nonpayable",
      "type": "function"
    },
    {
      "constant": false,
      "inputs": [
        {
          "name": "_from",
          "type": "address"
        },
        {
          "name": "_to",
          "type": "address"
        },
        {
          "name": "_tokenId",
          "type": "uint256"
        }
      ],
      "name": "transferFrom",
      "outputs": [],
      "payable": false,
      "stateMutability": "nonpayable",
      "type": "function"
    }
  ],
  "bytecode": "0x608060405266038d7ea4c6800060005566be78bd4c57d00060015560c86002556707d72165f25ed0006003556096600455607860055534801561004157600080fd5b5033600a60006101000a81548173ffffffffffffffffffffffffffffffffffffffff021916908373ffffffffffffffffffffffffffffffffffffffff1602179055506120b5806100926000396000f3fe60806040526004361061014b5760003560e01c806370a08231116100b6578063b9186d7d1161006f578063b9186d7d1461093e578063e55ae4e81461098d578063e94e80fa14610a82578063efef39a114610afd578063f2d05f2b14610b2b578063f76f8d7814610ba65761014b565b806370a082311461067d5780638462151c146106e257806395d89b4114610788578063a3f4df7e14610818578063a9059cbb146108a8578063b2e6ceeb146109035761014b565b80631051db34116101085780631051db341461040a57806318160ddd1461043957806323b872dd1461046457806327d7874c146104df5780635fe736e9146105305780636352211e146106025761014b565b806305e455461461015057806306fdde031461017b578063095ea7b31461020b5780630a0f8168146102665780630b7e9c44146102bd5780630e9344471461030e575b600080fd5b34801561015c57600080fd5b50610165610c36565b6040518082815260200191505060405180910390f35b34801561018757600080fd5b50610190610c3c565b6040518080602001828103825283818151815260200191508051906020019080838360005b838110156101d05780820151818401526020810190506101b5565b50505050905090810190601f1680156101fd5780820380516001836020036101000a031916815260200191505b509250505060405180910390f35b34801561021757600080fd5b506102646004803603604081101561022e57600080fd5b81019080803573ffffffffffffffffffffffffffffffffffffffff16906020019092919080359060200190929190505050610c79565b005b34801561027257600080fd5b5061027b610d47565b604051808273ffffffffffffffffffffffffffffffffffffffff1673ffffffffffffffffffffffffffffffffffffffff16815260200191505060405180910390f35b3480156102c957600080fd5b5061030c600480360360208110156102e057600080fd5b81019080803573ffffffffffffffffffffffffffffffffffffffff169060200190929190505050610d6d565b005b34801561031a57600080fd5b506104086004803603608081101561033157600080fd5b81019080803573ffffffffffffffffffffffffffffffffffffffff1690602001909291908035906020019064010000000081111561036e57600080fd5b82018360208201111561038057600080fd5b803590602001918460018302840111640100000000831117156103a257600080fd5b91908080601f016020809104026020016040519081016040528093929190818152602001838380828437600081840152601f19601f8201169050808301925050505050505091929192908035906020019092919080359060200190929190505050610dd3565b005b34801561041657600080fd5b5061041f610ed0565b604051808215151515815260200191505060405180910390f35b34801561044557600080fd5b5061044e610ed9565b6040518082815260200191505060405180910390f35b34801561047057600080fd5b506104dd6004803603606081101561048757600080fd5b81019080803573ffffffffffffffffffffffffffffffffffffffff169060200190929190803573ffffffffffffffffffffffffffffffffffffffff16906020019092919080359060200190929190505050610ee6565b005b3480156104eb57600080fd5b5061052e6004803603602081101561050257600080fd5b81019080803573ffffffffffffffffffffffffffffffffffffffff169060200190929190505050610f2e565b005b34801561053c57600080fd5b506106006004803603604081101561055357600080fd5b810190808035906020019064010000000081111561057057600080fd5b82018360208201111561058257600080fd5b803590602001918460018302840111640100000000831117156105a457600080fd5b91908080601f016020809104026020016040519081016040528093929190818152602001838380828437600081840152601f19601f82011690508083019250505050505050919291929080359060200190929190505050611006565b005b34801561060e57600080fd5b5061063b6004803603602081101561062557600080fd5b8101908080359060200190929190505050611072565b604051808273ffffffffffffffffffffffffffffffffffffffff1673ffffffffffffffffffffffffffffffffffffffff16815260200191505060405180910390f35b34801561068957600080fd5b506106cc600480360360208110156106a057600080fd5b81019080803573ffffffffffffffffffffffffffffffffffffffff1690602001909291905050506110e9565b6040518082815260200191505060405180910390f35b3480156106ee57600080fd5b506107316004803603602081101561070557600080fd5b81019080803573ffffffffffffffffffffffffffffffffffffffff169060200190929190505050611132565b6040518080602001828103825283818151815260200191508051906020019060200280838360005b83811015610774578082015181840152602081019050610759565b505050509050019250505060405180910390f35b34801561079457600080fd5b5061079d611279565b6040518080602001828103825283818151815260200191508051906020019080838360005b838110156107dd5780820151818401526020810190506107c2565b50505050905090810190601f16801561080a5780820380516001836020036101000a031916815260200191505b509250505060405180910390f35b34801561082457600080fd5b5061082d6112b6565b6040518080602001828103825283818151815260200191508051906020019080838360005b8381101561086d578082015181840152602081019050610852565b50505050905090810190601f16801561089a5780820380516001836020036101000a031916815260200191505b509250505060405180910390f35b3480156108b457600080fd5b50610901600480360360408110156108cb57600080fd5b81019080803573ffffffffffffffffffffffffffffffffffffffff169060200190929190803590602001909291905050506112ef565b005b34801561090f57600080fd5b5061093c6004803603602081101561092657600080fd5b8101908080359060200190929190505050611323565b005b34801561094a57600080fd5b506109776004803603602081101561096157600080fd5b8101908080359060200190929190505050611395565b6040518082815260200191505060405180910390f35b34801561099957600080fd5b506109c6600480360360208110156109b057600080fd5b81019080803590602001909291905050506113b2565b60405180806020018581526020018481526020018373ffffffffffffffffffffffffffffffffffffffff1673ffffffffffffffffffffffffffffffffffffffff168152602001828103825286818151815260200191508051906020019080838360005b83811015610a44578082015181840152602081019050610a29565b50505050905090810190601f168015610a715780820380516001836020036101000a031916815260200191505b509550505050505060405180910390f35b348015610a8e57600080fd5b50610abb60048036036020811015610aa557600080fd5b81019080803590602001909291905050506114d1565b604051808273ffffffffffffffffffffffffffffffffffffffff1673ffffffffffffffffffffffffffffffffffffffff16815260200191505060405180910390f35b610b2960048036036020811015610b1357600080fd5b8101908080359060200190929190505050611504565b005b348015610b3757600080fd5b50610b6460048036036020811015610b4e57600080fd5b8101908080359060200190929190505050611937565b604051808273ffffffffffffffffffffffffffffffffffffffff1673ffffffffffffffffffffffffffffffffffffffff16815260200191505060405180910390f35b348015610bb257600080fd5b50610bbb61196a565b6040518080602001828103825283818151815260200191508051906020019080838360005b83811015610bfb578082015181840152602081019050610be0565b50505050905090810190601f168015610c285780820380516001836020036101000a031916815260200191505b509250505060405180910390f35b600b5481565b60606040518060400160405280600b81526020017f43727970746f536f636372000000000000000000000000000000000000000000815250905090565b610c8333826119a3565b610c8c57600080fd5b816008600083815260200190815260200160002060006101000a81548173ffffffffffffffffffffffffffffffffffffffff021916908373ffffffffffffffffffffffffffffffffffffffff1602179055508173ffffffffffffffffffffffffffffffffffffffff163373ffffffffffffffffffffffffffffffffffffffff167f8c5be1e5ebec7d5bd14f71427d1e84f3dd0314c0f7b2291e5b200ac8c7c3b925836040518082815260200191505060405180910390a35050565b600a60009054906101000a900473ffffffffffffffffffffffffffffffffffffffff1681565b600a60009054906101000a900473ffffffffffffffffffffffffffffffffffffffff1673ffffffffffffffffffffffffffffffffffffffff163373ffffffffffffffffffffffffffffffffffffffff1614610dc757600080fd5b610dd081611a0f565b50565b600a60009054906101000a900473ffffffffffffffffffffffffffffffffffffffff1673ffffffffffffffffffffffffffffffffffffffff163373ffffffffffffffffffffffffffffffffffffffff1614610e2d57600080fd5b611388600b5410610e3d57600080fd5b6000849050600073ffffffffffffffffffffffffffffffffffffffff168173ffffffffffffffffffffffffffffffffffffffff161415610e9d57600a60009054906101000a900473ffffffffffffffffffffffffffffffffffffffff1690505b60008311610eab5760005492505b600b60008154809291906001019190505550610ec984828585611b2b565b5050505050565b60006001905090565b6000600c80549050905090565b610ef083826119a3565b610ef957600080fd5b610f038282611cbe565b610f0c57600080fd5b610f1582611d2a565b610f1e57600080fd5b610f29838383611d63565b505050565b600a60009054906101000a900473ffffffffffffffffffffffffffffffffffffffff1673ffffffffffffffffffffffffffffffffffffffff163373ffffffffffffffffffffffffffffffffffffffff1614610f8857600080fd5b600073ffffffffffffffffffffffffffffffffffffffff168173ffffffffffffffffffffffffffffffffffffffff161415610fc257600080fd5b80600a60006101000a81548173ffffffffffffffffffffffffffffffffffffffff021916908373ffffffffffffffffffffffffffffffffffffffff16021790555050565b600a60009054906101000a900473ffffffffffffffffffffffffffffffffffffffff1673ffffffffffffffffffffffffffffffffffffffff163373ffffffffffffffffffffffffffffffffffffffff161461106057600080fd5b61106e823060005484611b2b565b5050565b60006006600083815260200190815260200160002060009054906101000a900473ffffffffffffffffffffffffffffffffffffffff169050600073ffffffffffffffffffffffffffffffffffffffff168173ffffffffffffffffffffffffffffffffffffffff1614156110e457600080fd5b919050565b6000600760008373ffffffffffffffffffffffffffffffffffffffff1673ffffffffffffffffffffffffffffffffffffffff168152602001908152602001600020549050919050565b6060600061113f836110e9565b9050600081141561118357600060405190808252806020026020018201604052801561117a5781602001602082028038833980820191505090505b50915050611274565b6060816040519080825280602002602001820160405280156111b45781602001602082028038833980820191505090505b50905060006111c1610ed9565b9050600080905060008090505b82811161126b578673ffffffffffffffffffffffffffffffffffffffff166006600083815260200190815260200160002060009054906101000a900473ffffffffffffffffffffffffffffffffffffffff1673ffffffffffffffffffffffffffffffffffffffff16141561125e578084838151811061124957fe5b60200260200101818152505081806001019250505b80806001019150506111ce565b83955050505050505b919050565b60606040518060400160405280601081526020017f43727970746f536f636372546f6b656e00000000000000000000000000000000815250905090565b6040518060400160405280600b81526020017f43727970746f536f63637200000000000000000000000000000000000000000081525081565b6112f933826119a3565b61130257600080fd5b61130b82611d2a565b61131457600080fd5b61131f338383611d63565b5050565b600033905060006006600084815260200190815260200160002060009054906101000a900473ffffffffffffffffffffffffffffffffffffffff16905061136982611d2a565b61137257600080fd5b61137c8284611cbe565b61138557600080fd5b611390818385611d63565b505050565b600060096000838152602001908152602001600020549050919050565b6060600080600080600c86815481106113c757fe5b90600052602060002090600202019050806000018054600181600116156101000203166002900480601f01602080910402602001604051908101604052809291908181526020018280546001816001161561010002031660029004801561146f5780601f106114445761010080835404028352916020019161146f565b820191906000526020600020905b81548152906001019060200180831161145257829003601f168201915b5050505050945080600101549350600960008781526020019081526020016000205492506006600087815260200190815260200160002060009054906101000a900473ffffffffffffffffffffffffffffffffffffffff169150509193509193565b60086020528060005260406000206000915054906101000a900473ffffffffffffffffffffffffffffffffffffffff1681565b60006006600083815260200190815260200160002060009054906101000a900473ffffffffffffffffffffffffffffffffffffffff16905060003390506000600960008581526020019081526020016000205490508173ffffffffffffffffffffffffffffffffffffffff168373ffffffffffffffffffffffffffffffffffffffff16141561159257600080fd5b61159b82611d2a565b6115a457600080fd5b803410156115b157600080fd5b60006115c86115c183605e611f63565b6064611f9a565b905060006115d63484611fb3565b9050600154831015611614576115f86115f184600254611f63565b605e611f9a565b600960008881526020019081526020016000208190555061167f565b6003548310156116505761163461162d84600454611f63565b605e611f9a565b600960008881526020019081526020016000208190555061167e565b61166661165f84600554611f63565b605e611f9a565b60096000888152602001908152602001600020819055505b5b61168a858588611d63565b7f739b5014c7224bca337ffcf91eae66fcabc0fc4e06350060bfb219b30b511247868686604051808481526020018373ffffffffffffffffffffffffffffffffffffffff1673ffffffffffffffffffffffffffffffffffffffff1681526020018273ffffffffffffffffffffffffffffffffffffffff1673ffffffffffffffffffffffffffffffffffffffff168152602001935050505060405180910390a13073ffffffffffffffffffffffffffffffffffffffff168573ffffffffffffffffffffffffffffffffffffffff16146117a4578473ffffffffffffffffffffffffffffffffffffffff166108fc839081150290604051600060405180830381858888f193505050501580156117a2573d6000803e3d6000fd5b505b8373ffffffffffffffffffffffffffffffffffffffff16867e8201e7bcbf010c2c07de59d6e97cb7e3cf67a46125c49cbc89b9d2cde1f48f85600960008b81526020019081526020016000205489600c8c815481106117ff57fe5b9060005260206000209060020201600001604051808581526020018481526020018373ffffffffffffffffffffffffffffffffffffffff1673ffffffffffffffffffffffffffffffffffffffff168152602001806020018281038252838181546001816001161561010002031660029004815260200191508054600181600116156101000203166002900480156118d75780601f106118ac576101008083540402835291602001916118d7565b820191906000526020600020905b8154815290600101906020018083116118ba57829003601f168201915b50509550505050505060405180910390a33373ffffffffffffffffffffffffffffffffffffffff166108fc829081150290604051600060405180830381858888f1935050505015801561192e573d6000803e3d6000fd5b50505050505050565b60066020528060005260406000206000915054906101000a900473ffffffffffffffffffffffffffffffffffffffff1681565b6040518060400160405280601081526020017f43727970746f536f636372546f6b656e0000000000000000000000000000000081525081565b60006006600083815260200190815260200160002060009054906101000a900473ffffffffffffffffffffffffffffffffffffffff1673ffffffffffffffffffffffffffffffffffffffff168373ffffffffffffffffffffffffffffffffffffffff1614905092915050565b600073ffffffffffffffffffffffffffffffffffffffff168173ffffffffffffffffffffffffffffffffffffffff161415611ac957600a60009054906101000a900473ffffffffffffffffffffffffffffffffffffffff1673ffffffffffffffffffffffffffffffffffffffff166108fc3073ffffffffffffffffffffffffffffffffffffffff16319081150290604051600060405180830381858888f19350505050158015611ac3573d6000803e3d6000fd5b50611b28565b8073ffffffffffffffffffffffffffffffffffffffff166108fc3073ffffffffffffffffffffffffffffffffffffffff16319081150290604051600060405180830381858888f19350505050158015611b26573d6000803e3d6000fd5b505b50565b611b33611fca565b604051806040016040528086815260200183815250905060006001600c83908060018154018082558091505090600182039060005260206000209060020201600090919290919091506000820151816000019080519060200190611b98929190611fe4565b506020820151816001015550500390508063ffffffff168114611bba57600080fd5b7fb3b0cf861f168bcdb275c69da97b2543631552ba562628aa3c7317d4a6089ef281878760405180848152602001806020018373ffffffffffffffffffffffffffffffffffffffff1673ffffffffffffffffffffffffffffffffffffffff168152602001828103825284818151815260200191508051906020019080838360005b83811015611c56578082015181840152602081019050611c3b565b50505050905090810190601f168015611c835780820380516001836020036101000a031916815260200191505b5094505050505060405180910390a1836009600083815260200190815260200160002081905550611cb660008683611d63565b505050505050565b60008273ffffffffffffffffffffffffffffffffffffffff166008600084815260200190815260200160002060009054906101000a900473ffffffffffffffffffffffffffffffffffffffff1673ffffffffffffffffffffffffffffffffffffffff1614905092915050565b60008073ffffffffffffffffffffffffffffffffffffffff168273ffffffffffffffffffffffffffffffffffffffff1614159050919050565b600760008373ffffffffffffffffffffffffffffffffffffffff1673ffffffffffffffffffffffffffffffffffffffff16815260200190815260200160002060008154809291906001019190505550816006600083815260200190815260200160002060006101000a81548173ffffffffffffffffffffffffffffffffffffffff021916908373ffffffffffffffffffffffffffffffffffffffff160217905550600073ffffffffffffffffffffffffffffffffffffffff168373ffffffffffffffffffffffffffffffffffffffff1614611ebf57600760008473ffffffffffffffffffffffffffffffffffffffff1673ffffffffffffffffffffffffffffffffffffffff16815260200190815260200160002060008154809291906001900391905055506008600082815260200190815260200160002060006101000a81549073ffffffffffffffffffffffffffffffffffffffff02191690555b7fddf252ad1be2c89b69c2b068fc378daa952ba7f163c4a11628f55a4df523b3ef838383604051808473ffffffffffffffffffffffffffffffffffffffff1673ffffffffffffffffffffffffffffffffffffffff1681526020018373ffffffffffffffffffffffffffffffffffffffff1673ffffffffffffffffffffffffffffffffffffffff168152602001828152602001935050505060405180910390a1505050565b600080831415611f765760009050611f94565b6000828402905082848281611f8757fe5b0414611f8f57fe5b809150505b92915050565b600080828481611fa657fe5b0490508091505092915050565b600082821115611fbf57fe5b818303905092915050565b604051806040016040528060608152602001600081525090565b828054600181600116156101000203166002900490600052602060002090601f016020900481019282601f1061202557805160ff1916838001178555612053565b82800160010185558215612053579182015b82811115612052578251825591602001919060010190612037565b5b5090506120609190612064565b5090565b61208691905b8082111561208257600081600090555060010161206a565b5090565b9056fea165627a7a72305820afe457e7e58c5bc0c32c4e72d09249494938cea79d9bb4181d0fb296beea79b90029",
  "source": "/**\n *Submitted for verification at Etherscan.io on 2018-02-11\n*/\n\npragma solidity >=0.4.21 <0.6.0;\n\n\nlibrary SafeMath {\n\n    /**\n    * @dev Multiplies two numbers, throws on overflow.\n    */\n    function mul(uint256 a, uint256 b) internal pure returns (uint256) {\n        if (a == 0) {\n            return 0;\n        }\n        uint256 c = a * b;\n        assert(c / a == b);\n        return c;\n    }\n\n    /**\n    * @dev Integer division of two numbers, truncating the quotient.\n    */\n    function div(uint256 a, uint256 b) internal pure returns (uint256) {\n        // assert(b > 0); // Solidity automatically throws when dividing by 0\n        uint256 c = a / b;\n        // assert(a == b * c + a % b); // There is no case in which this doesn't hold\n        return c;\n    }\n\n    /**\n    * @dev Substracts two numbers, throws on overflow (i.e. if subtrahend is greater than minuend).\n    */\n    function sub(uint256 a, uint256 b) internal pure returns (uint256) {\n        assert(b <= a);\n        return a - b;\n    }\n\n    /**\n    * @dev Adds two numbers, throws on overflow.\n    */\n    function add(uint256 a, uint256 b) internal pure returns (uint256) {\n        uint256 c = a + b;\n        assert(c >= a);\n        return c;\n    }\n}\n\ncontract ERC721 {\n\n    // Required methods\n    function approve(address _to, uint256 _tokenId) public;\n    function balanceOf(address _owner) public view returns (uint256 balance);\n    function implementsERC721() public pure returns (bool);\n    function ownerOf(uint256 _tokenId) public view returns (address addr);\n    function takeOwnership(uint256 _tokenId) public;\n    function totalSupply() public view returns (uint256 total);\n    function transferFrom(address _from, address _to, uint256 _tokenId) public;\n    function transfer(address _to, uint256 _tokenId) public;\n\n    event Transfer(address indexed from, address indexed to, uint256 tokenId);\n    event Approval(address indexed owner, address indexed approved, uint256 tokenId);\n\n    // Optional\n    // function name() public view returns (string name);\n    // function symbol() public view returns (string symbol);\n    // function tokenOfOwnerByIndex(address _owner, uint256 _index) external view returns (uint256 tokenId);\n    // function tokenMetadata(uint256 _tokenId) public view returns (string infoUrl);\n}\n\n\ncontract CryptoSoccrToken is ERC721 {\n\n    /*** EVENTS ***/\n\n    /// @dev The Birth event is fired whenever a new player comes into existence.\n    event Birth(uint256 tokenId, string name, address owner);\n    event Snatch(uint256 tokenId, address oldOwner, address newOwner);\n\n/// @dev The TokenSold event is fired whenever a token is sold.\n    event TokenSold(\n        uint256 indexed tokenId,\n        uint256 oldPrice,\n        uint256 newPrice,\n        address prevOwner,\n        address indexed winner,\n        string name\n    );\n\n    /// @dev Transfer event as defined in current draft of ERC721.\n    ///    ownership is assigned, including births.\n    event Transfer(address from, address to, uint256 tokenId);\n\n    /*** CONSTANTS ***/\n\n    /// @notice Name and symbol of the non fungible token, as defined in ERC721.\n    string public constant NAME = \"CryptoSoccr\";\n    string public constant SYMBOL = \"CryptoSoccrToken\";\n\n    uint256 private startingPrice = 0.001 ether;\n    uint256 private constant PROMO_CREATION_LIMIT = 5000;\n    uint256 private firstStepLimit =    0.053613 ether;\n    uint256 private firstStepMultiplier =    200;\n    uint256 private secondStepLimit = 0.564957 ether;\n    uint256 private secondStepMultiplier = 150;\n    uint256 private thirdStepMultiplier = 120;\n\n    /*** STORAGE ***/\n\n    /// @dev A mapping from player IDs to the address that owns them. All players have\n    ///    some valid owner address.\n    mapping (uint256 => address) public playerIndexToOwner;\n\n    // @dev A mapping from owner address to count of tokens that address owns.\n    //    Used internally inside balanceOf() to resolve ownership count.\n    mapping (address => uint256) private ownershipTokenCount;\n\n    /// @dev A mapping from PlayerIDs to an address that has been approved to call\n    ///    transferFrom(). Each Player can only have one approved address for transfer\n    ///    at any time. A zero value means no approval is outstanding.\n    mapping (uint256 => address) public playerIndexToApproved;\n\n    // @dev A mapping from PlayerIDs to the price of the token.\n    mapping (uint256 => uint256) private playerIndexToPrice;\n\n    // The addresses of the accounts (or contracts) that can execute actions within each roles.\n    address public ceoAddress;\n\n    uint256 public promoCreatedCount;\n\n    /*** DATATYPES ***/\n    struct Player {\n        string name;\n        uint256 internalPlayerId;\n    }\n\n    Player[] private players;\n\n    /*** ACCESS MODIFIERS ***/\n    /// @dev Access modifier for CEO-only functionality\n    modifier onlyCEO() {\n        require(msg.sender == ceoAddress);\n        _;\n    }\n\n    /// Access modifier for contract owner only functionality\n    modifier onlyCLevel() {\n        require(msg.sender == ceoAddress);\n        _;\n    }\n\n    /*** CONSTRUCTOR ***/\n    constructor() public {\n        ceoAddress = msg.sender;\n    }\n\n    /*** PUBLIC FUNCTIONS ***/\n    /// @notice Grant another address the right to transfer token via takeOwnership() and transferFrom().\n    /// @param _to The address to be granted transfer approval. Pass address(0) to\n    ///    clear all approvals.\n    /// @param _tokenId The ID of the Token that can be transferred if this call succeeds.\n    /// @dev Required for ERC-721 compliance.\n    function approve(\n        address _to,\n        uint256 _tokenId\n    ) public {\n        // Caller must own token.\n        require(_owns(msg.sender, _tokenId));\n\n        playerIndexToApproved[_tokenId] = _to;\n\n        emit Approval(msg.sender, _to, _tokenId);\n    }\n\n    /// For querying balance of a particular account\n    /// @param _owner The address for balance query\n    /// @dev Required for ERC-721 compliance.\n    function balanceOf(address _owner) public view returns (uint256 balance) {\n        return ownershipTokenCount[_owner];\n    }\n\n    /// @dev Creates a new promo Player with the given name, with given _price and assignes it to an address.\n    function createPromoPlayer(address _owner, string memory _name, uint256 _price, uint256 _internalPlayerId) public onlyCEO {\n        require(promoCreatedCount < PROMO_CREATION_LIMIT);\n\n        address playerOwner = _owner;\n        if (playerOwner == address(0)) {\n            playerOwner = ceoAddress;\n        }\n\n        if (_price <= 0) {\n            _price = startingPrice;\n        }\n\n        promoCreatedCount++;\n        _createPlayer(_name, playerOwner, _price, _internalPlayerId);\n    }\n\n    /// @dev Creates a new Player with the given name.\n    function createContractPlayer(string memory _name, uint256 _internalPlayerId) public onlyCEO {\n        _createPlayer(_name, address(this), startingPrice, _internalPlayerId);\n    }\n\n    /// @notice Returns all the relevant information about a specific player.\n    /// @param _tokenId The tokenId of the player of interest.\n    function getPlayer(uint256 _tokenId) public view returns (\n        string memory playerName,\n        uint256 internalPlayerId,\n        uint256 sellingPrice,\n        address owner\n    ) {\n        Player storage player = players[_tokenId];\n        playerName = player.name;\n        internalPlayerId = player.internalPlayerId;\n        sellingPrice = playerIndexToPrice[_tokenId];\n        owner = playerIndexToOwner[_tokenId];\n    }\n\n    function implementsERC721() public pure returns (bool) {\n        return true;\n    }\n\n    /// @dev Required for ERC-721 compliance.\n    function name() public pure returns (string memory) {\n        return NAME;\n    }\n\n    /// For querying owner of token\n    /// @param _tokenId The tokenID for owner inquiry\n    /// @dev Required for ERC-721 compliance.\n    function ownerOf(uint256 _tokenId)\n        public\n        view\n        returns (address owner)\n    {\n        owner = playerIndexToOwner[_tokenId];\n        require(owner != address(0));\n    }\n\n    function payout(address _to) public onlyCLevel {\n        _payout(_to);\n    }\n\n    // Allows someone to send ether and obtain the token\n    function purchase(uint256 _tokenId) public payable {\n        address oldOwner = playerIndexToOwner[_tokenId];\n        address newOwner = msg.sender;\n\n        uint256 sellingPrice = playerIndexToPrice[_tokenId];\n\n        // Making sure token owner is not sending to self\n        require(oldOwner != newOwner);\n\n        // Safety check to prevent against an unexpected 0x0 default.\n        require(_addressNotNull(newOwner));\n\n        // Making sure sent amount is greater than or equal to the sellingPrice\n        require(msg.value >= sellingPrice);\n\n        uint256 payment = uint256(SafeMath.div(SafeMath.mul(sellingPrice, 94), 100));\n        uint256 purchaseExcess = SafeMath.sub(msg.value, sellingPrice);\n\n        // Update prices\n        if (sellingPrice < firstStepLimit) {\n            // first stage\n            playerIndexToPrice[_tokenId] = SafeMath.div(SafeMath.mul(sellingPrice, firstStepMultiplier), 94);\n        } else if (sellingPrice < secondStepLimit) {\n            // second stage\n            playerIndexToPrice[_tokenId] = SafeMath.div(SafeMath.mul(sellingPrice, secondStepMultiplier), 94);\n        } else {\n            // third stage\n            playerIndexToPrice[_tokenId] = SafeMath.div(SafeMath.mul(sellingPrice, thirdStepMultiplier), 94);\n        }\n\n        _transfer(oldOwner, newOwner, _tokenId);\n        emit Snatch(_tokenId, oldOwner, newOwner);\n\n        // Pay previous tokenOwner if owner is not contract\n        if (oldOwner != address(this)) {\n            address(uint160(oldOwner)).transfer(payment); //(1-0.06)\n        }\n\n        emit TokenSold(_tokenId, sellingPrice, playerIndexToPrice[_tokenId], oldOwner, newOwner, players[_tokenId].name);\n\n        msg.sender.transfer(purchaseExcess);\n    }\n\n    function priceOf(uint256 _tokenId) public view returns (uint256 price) {\n        return playerIndexToPrice[_tokenId];\n    }\n\n    /// @dev Assigns a new address to act as the CEO. Only available to the current CEO.\n    /// @param _newCEO The address of the new CEO\n    function setCEO(address _newCEO) public onlyCEO {\n        require(_newCEO != address(0));\n\n        ceoAddress = _newCEO;\n    }\n\n    /// @dev Required for ERC-721 compliance.\n    function symbol() public pure returns (string memory) {\n        return SYMBOL;\n    }\n\n    /// @notice Allow pre-approved user to take ownership of a token\n    /// @param _tokenId The ID of the Token that can be transferred if this call succeeds.\n    /// @dev Required for ERC-721 compliance.\n    function takeOwnership(uint256 _tokenId) public {\n        address newOwner = msg.sender;\n        address oldOwner = playerIndexToOwner[_tokenId];\n\n        // Safety check to prevent against an unexpected 0x0 default.\n        require(_addressNotNull(newOwner));\n\n        // Making sure transfer is approved\n        require(_approved(newOwner, _tokenId));\n\n        _transfer(oldOwner, newOwner, _tokenId);\n    }\n\n    /// @param _owner The owner whose soccer player tokens we are interested in.\n    /// @dev This method MUST NEVER be called by smart contract code. First, it's fairly\n    ///    expensive (it walks the entire Players array looking for players belonging to owner),\n    ///    but it also returns a dynamic array, which is only supported for web3 calls, and\n    ///    not contract-to-contract calls.\n    function tokensOfOwner(address _owner) public view returns(uint256[] memory ownerTokens) {\n        uint256 tokenCount = balanceOf(_owner);\n        if (tokenCount == 0) {\n                // Return an empty array\n            return new uint256[](0);\n        } else {\n            uint256[] memory result = new uint256[](tokenCount);\n            uint256 totalPlayers = totalSupply();\n            uint256 resultIndex = 0;\n\n            uint256 playerId;\n            for (playerId = 0; playerId <= totalPlayers; playerId++) {\n                if (playerIndexToOwner[playerId] == _owner) {\n                    result[resultIndex] = playerId;\n                    resultIndex++;\n                }\n            }\n            return result;\n        }\n    }\n\n    /// For querying totalSupply of token\n    /// @dev Required for ERC-721 compliance.\n    function totalSupply() public view returns (uint256 total) {\n        return players.length;\n    }\n\n    /// Owner initates the transfer of the token to another account\n    /// @param _to The address for the token to be transferred to.\n    /// @param _tokenId The ID of the Token that can be transferred if this call succeeds.\n    /// @dev Required for ERC-721 compliance.\n    function transfer(\n        address _to,\n        uint256 _tokenId\n    ) public {\n        require(_owns(msg.sender, _tokenId));\n        require(_addressNotNull(_to));\n\n        _transfer(msg.sender, _to, _tokenId);\n    }\n\n    /// Third-party initiates transfer of token from address _from to address _to\n    /// @param _from The address for the token to be transferred from.\n    /// @param _to The address for the token to be transferred to.\n    /// @param _tokenId The ID of the Token that can be transferred if this call succeeds.\n    /// @dev Required for ERC-721 compliance.\n    function transferFrom(\n        address _from,\n        address _to,\n        uint256 _tokenId\n    ) public {\n        require(_owns(_from, _tokenId));\n        require(_approved(_to, _tokenId));\n        require(_addressNotNull(_to));\n\n        _transfer(_from, _to, _tokenId);\n    }\n\n    /*** PRIVATE FUNCTIONS ***/\n    /// Safety check on _to address to prevent against an unexpected 0x0 default.\n    function _addressNotNull(address _to) private pure returns (bool) {\n        return _to != address(0);\n    }\n\n    /// For checking approval of transfer for address _to\n    function _approved(address _to, uint256 _tokenId) private view returns (bool) {\n        return playerIndexToApproved[_tokenId] == _to;\n    }\n\n    /// For creating Player\n    function _createPlayer(string memory _name, address _owner, uint256 _price, uint256 _internalPlayerId) private {\n        Player memory _player = Player({\n            name: _name,\n            internalPlayerId: _internalPlayerId\n        });\n        uint256 newPlayerId = players.push(_player) - 1;\n\n        // It's probably never going to happen, 4 billion tokens are A LOT, but\n        // let's just be 100% sure we never let this happen.\n        require(newPlayerId == uint256(uint32(newPlayerId)));\n\n        emit Birth(newPlayerId, _name, _owner);\n\n        playerIndexToPrice[newPlayerId] = _price;\n\n        // This will assign ownership, and also emit the Transfer event as\n        // per ERC721 draft\n        _transfer(address(0), _owner, newPlayerId);\n    }\n\n    /// Check for token ownership\n    function _owns(address claimant, uint256 _tokenId) private view returns (bool) {\n        return claimant == playerIndexToOwner[_tokenId];\n    }\n\n    /// For paying out balance on contract\n    function _payout(address _to) private {\n        if (_to == address(0)) {\n            address(uint160(ceoAddress)).transfer(address(this).balance);\n        } else {\n            address(uint160(_to)).transfer(address(this).balance);\n        }\n    }\n\n    /// @dev Assigns ownership of a specific Player to an address.\n    function _transfer(address _from, address _to, uint256 _tokenId) private {\n        // Since the number of players is capped to 2^32 we can't overflow this\n        ownershipTokenCount[_to]++;\n        //transfer ownership\n        playerIndexToOwner[_tokenId] = _to;\n\n        // When creating new players _from is 0x0, but we can't account that address.\n        if (_from != address(0)) {\n            ownershipTokenCount[_from]--;\n            // clear any previously approved ownership exchange\n            delete playerIndexToApproved[_tokenId];\n        }\n\n        // Emit the transfer event.\n        emit Transfer(_from, _to, _tokenId);\n    }\n}",
  "sourcePath": "/Users/gupadhyaya/go/src/github.com/harmony-one/soccerplayers/contracts/CryptoSoccrToken.sol",
  "compiler": {
    "name": "solc",
    "version": "0.5.8+commit.23d335f2.Emscripten.clang"
  },
  "schemaVersion": "3.0.16",
  "updatedAt": "2020-06-20T01:35:22.013Z",
  "devdoc": {
    "methods": {
      "approve(address,uint256)": {
        "details": "Required for ERC-721 compliance.",
        "params": {
          "_to": "The address to be granted transfer approval. Pass address(0) to    clear all approvals.",
          "_tokenId": "The ID of the Token that can be transferred if this call succeeds."
        }
      },
      "balanceOf(address)": {
        "details": "Required for ERC-721 compliance.",
        "params": {
          "_owner": "The address for balance query"
        }
      },
      "createContractPlayer(string,uint256)": {
        "details": "Creates a new Player with the given name."
      },
      "createPromoPlayer(address,string,uint256,uint256)": {
        "details": "Creates a new promo Player with the given name, with given _price and assignes it to an address."
      },
      "getPlayer(uint256)": {
        "params": {
          "_tokenId": "The tokenId of the player of interest."
        }
      },
      "name()": {
        "details": "Required for ERC-721 compliance."
      },
      "ownerOf(uint256)": {
        "details": "Required for ERC-721 compliance.",
        "params": {
          "_tokenId": "The tokenID for owner inquiry"
        }
      },
      "setCEO(address)": {
        "details": "Assigns a new address to act as the CEO. Only available to the current CEO.",
        "params": {
          "_newCEO": "The address of the new CEO"
        }
      },
      "symbol()": {
        "details": "Required for ERC-721 compliance."
      },
      "takeOwnership(uint256)": {
        "details": "Required for ERC-721 compliance.",
        "params": {
          "_tokenId": "The ID of the Token that can be transferred if this call succeeds."
        }
      },
      "tokensOfOwner(address)": {
        "details": "This method MUST NEVER be called by smart contract code. First, it's fairly    expensive (it walks the entire Players array looking for players belonging to owner),    but it also returns a dynamic array, which is only supported for web3 calls, and    not contract-to-contract calls.",
        "params": {
          "_owner": "The owner whose soccer player tokens we are interested in."
        }
      },
      "totalSupply()": {
        "details": "Required for ERC-721 compliance."
      },
      "transfer(address,uint256)": {
        "details": "Required for ERC-721 compliance.",
        "params": {
          "_to": "The address for the token to be transferred to.",
          "_tokenId": "The ID of the Token that can be transferred if this call succeeds."
        }
      },
      "transferFrom(address,address,uint256)": {
        "details": "Required for ERC-721 compliance.",
        "params": {
          "_from": "The address for the token to be transferred from.",
          "_to": "The address for the token to be transferred to.",
          "_tokenId": "The ID of the Token that can be transferred if this call succeeds."
        }
      }
    }
  },
  "userdoc": {
    "methods": {
      "approve(address,uint256)": {
        "notice": "Grant another address the right to transfer token via takeOwnership() and transferFrom()."
      },
      "balanceOf(address)": {
        "notice": "For querying balance of a particular account"
      },
      "constructor": "* CONSTRUCTOR **",
      "getPlayer(uint256)": {
        "notice": "Returns all the relevant information about a specific player."
      },
      "ownerOf(uint256)": {
        "notice": "For querying owner of token"
      },
      "takeOwnership(uint256)": {
        "notice": "Allow pre-approved user to take ownership of a token"
      },
      "totalSupply()": {
        "notice": "For querying totalSupply of token"
      },
      "transfer(address,uint256)": {
        "notice": "Owner initates the transfer of the token to another account"
      },
      "transferFrom(address,address,uint256)": {
        "notice": "Third-party initiates transfer of token from address _from to address _to"
      }
    }
  }
}