{
  "contractName": "SoccerPlayers",
  "abi": [
    {
      "constant": true,
      "inputs": [
        {
          "name": "interfaceId",
          "type": "bytes4"
        }
      ],
      "name": "supportsInterface",
      "outputs": [
        {
          "name": "",
          "type": "bool"
        }
      ],
      "payable": false,
      "stateMutability": "view",
      "type": "function"
    },
    {
      "constant": true,
      "inputs": [],
      "name": "promoCreatedCount",
      "outputs": [
        {
          "name": "",
          "type": "uint256"
        }
      ],
      "payable": false,
      "stateMutability": "view",
      "type": "function"
    },
    {
      "constant": true,
      "inputs": [
        {
          "name": "tokenId",
          "type": "uint256"
        }
      ],
      "name": "getApproved",
      "outputs": [
        {
          "name": "",
          "type": "address"
        }
      ],
      "payable": false,
      "stateMutability": "view",
      "type": "function"
    },
    {
      "constant": true,
      "inputs": [],
      "name": "ceoAddress",
      "outputs": [
        {
          "name": "",
          "type": "address"
        }
      ],
      "payable": false,
      "stateMutability": "view",
      "type": "function"
    },
    {
      "constant": false,
      "inputs": [
        {
          "name": "from",
          "type": "address"
        },
        {
          "name": "to",
          "type": "address"
        },
        {
          "name": "tokenId",
          "type": "uint256"
        }
      ],
      "name": "safeTransferFrom",
      "outputs": [],
      "payable": false,
      "stateMutability": "nonpayable",
      "type": "function"
    },
    {
      "constant": false,
      "inputs": [
        {
          "name": "to",
          "type": "address"
        },
        {
          "name": "approved",
          "type": "bool"
        }
      ],
      "name": "setApprovalForAll",
      "outputs": [],
      "payable": false,
      "stateMutability": "nonpayable",
      "type": "function"
    },
    {
      "constant": true,
      "inputs": [],
      "name": "NAME",
      "outputs": [
        {
          "name": "",
          "type": "string"
        }
      ],
      "payable": false,
      "stateMutability": "view",
      "type": "function"
    },
    {
      "constant": false,
      "inputs": [
        {
          "name": "from",
          "type": "address"
        },
        {
          "name": "to",
          "type": "address"
        },
        {
          "name": "tokenId",
          "type": "uint256"
        },
        {
          "name": "_data",
          "type": "bytes"
        }
      ],
      "name": "safeTransferFrom",
      "outputs": [],
      "payable": false,
      "stateMutability": "nonpayable",
      "type": "function"
    },
    {
      "constant": true,
      "inputs": [
        {
          "name": "",
          "type": "uint256"
        }
      ],
      "name": "playerIndexToApproved",
      "outputs": [
        {
          "name": "",
          "type": "address"
        }
      ],
      "payable": false,
      "stateMutability": "view",
      "type": "function"
    },
    {
      "constant": true,
      "inputs": [
        {
          "name": "owner",
          "type": "address"
        },
        {
          "name": "operator",
          "type": "address"
        }
      ],
      "name": "isApprovedForAll",
      "outputs": [
        {
          "name": "",
          "type": "bool"
        }
      ],
      "payable": false,
      "stateMutability": "view",
      "type": "function"
    },
    {
      "constant": true,
      "inputs": [
        {
          "name": "",
          "type": "uint256"
        }
      ],
      "name": "playerIndexToOwner",
      "outputs": [
        {
          "name": "",
          "type": "address"
        }
      ],
      "payable": false,
      "stateMutability": "view",
      "type": "function"
    },
    {
      "constant": true,
      "inputs": [],
      "name": "SYMBOL",
      "outputs": [
        {
          "name": "",
          "type": "string"
        }
      ],
      "payable": false,
      "stateMutability": "view",
      "type": "function"
    },
    {
      "inputs": [],
      "payable": false,
      "stateMutability": "nonpayable",
      "type": "constructor"
    },
    {
      "anonymous": false,
      "inputs": [
        {
          "indexed": false,
          "name": "tokenId",
          "type": "uint256"
        },
        {
          "indexed": false,
          "name": "name",
          "type": "string"
        },
        {
          "indexed": false,
          "name": "owner",
          "type": "address"
        }
      ],
      "name": "Birth",
      "type": "event"
    },
    {
      "anonymous": false,
      "inputs": [
        {
          "indexed": false,
          "name": "tokenId",
          "type": "uint256"
        },
        {
          "indexed": false,
          "name": "oldOwner",
          "type": "address"
        },
        {
          "indexed": false,
          "name": "newOwner",
          "type": "address"
        }
      ],
      "name": "Snatch",
      "type": "event"
    },
    {
      "anonymous": false,
      "inputs": [
        {
          "indexed": true,
          "name": "tokenId",
          "type": "uint256"
        },
        {
          "indexed": false,
          "name": "oldPrice",
          "type": "uint256"
        },
        {
          "indexed": false,
          "name": "newPrice",
          "type": "uint256"
        },
        {
          "indexed": false,
          "name": "prevOwner",
          "type": "address"
        },
        {
          "indexed": true,
          "name": "winner",
          "type": "address"
        },
        {
          "indexed": false,
          "name": "name",
          "type": "string"
        }
      ],
      "name": "TokenSold",
      "type": "event"
    },
    {
      "anonymous": false,
      "inputs": [
        {
          "indexed": false,
          "name": "from",
          "type": "address"
        },
        {
          "indexed": false,
          "name": "to",
          "type": "address"
        },
        {
          "indexed": false,
          "name": "tokenId",
          "type": "uint256"
        }
      ],
      "name": "Transfer",
      "type": "event"
    },
    {
      "anonymous": false,
      "inputs": [
        {
          "indexed": true,
          "name": "owner",
          "type": "address"
        },
        {
          "indexed": true,
          "name": "approved",
          "type": "address"
        },
        {
          "indexed": true,
          "name": "tokenId",
          "type": "uint256"
        }
      ],
      "name": "Approval",
      "type": "event"
    },
    {
      "anonymous": false,
      "inputs": [
        {
          "indexed": true,
          "name": "owner",
          "type": "address"
        },
        {
          "indexed": true,
          "name": "operator",
          "type": "address"
        },
        {
          "indexed": false,
          "name": "approved",
          "type": "bool"
        }
      ],
      "name": "ApprovalForAll",
      "type": "event"
    },
    {
      "constant": false,
      "inputs": [
        {
          "name": "_to",
          "type": "address"
        },
        {
          "name": "_tokenId",
          "type": "uint256"
        }
      ],
      "name": "approve",
      "outputs": [],
      "payable": false,
      "stateMutability": "nonpayable",
      "type": "function"
    },
    {
      "constant": true,
      "inputs": [
        {
          "name": "_owner",
          "type": "address"
        }
      ],
      "name": "balanceOf",
      "outputs": [
        {
          "name": "balance",
          "type": "uint256"
        }
      ],
      "payable": false,
      "stateMutability": "view",
      "type": "function"
    },
    {
      "constant": false,
      "inputs": [
        {
          "name": "_owner",
          "type": "address"
        },
        {
          "name": "_name",
          "type": "string"
        },
        {
          "name": "_price",
          "type": "uint256"
        },
        {
          "name": "_internalPlayerId",
          "type": "uint256"
        }
      ],
      "name": "createPromoPlayer",
      "outputs": [],
      "payable": false,
      "stateMutability": "nonpayable",
      "type": "function"
    },
    {
      "constant": false,
      "inputs": [
        {
          "name": "_name",
          "type": "string"
        },
        {
          "name": "_internalPlayerId",
          "type": "uint256"
        }
      ],
      "name": "createContractPlayer",
      "outputs": [],
      "payable": false,
      "stateMutability": "nonpayable",
      "type": "function"
    },
    {
      "constant": true,
      "inputs": [
        {
          "name": "_tokenId",
          "type": "uint256"
        }
      ],
      "name": "getPlayer",
      "outputs": [
        {
          "name": "playerName",
          "type": "string"
        },
        {
          "name": "internalPlayerId",
          "type": "uint256"
        },
        {
          "name": "sellingPrice",
          "type": "uint256"
        },
        {
          "name": "owner",
          "type": "address"
        },
        {
          "name": "transactionCount",
          "type": "uint256"
        }
      ],
      "payable": false,
      "stateMutability": "view",
      "type": "function"
    },
    {
      "constant": true,
      "inputs": [],
      "name": "implementsERC721",
      "outputs": [
        {
          "name": "",
          "type": "bool"
        }
      ],
      "payable": false,
      "stateMutability": "pure",
      "type": "function"
    },
    {
      "constant": true,
      "inputs": [],
      "name": "name",
      "outputs": [
        {
          "name": "",
          "type": "string"
        }
      ],
      "payable": false,
      "stateMutability": "pure",
      "type": "function"
    },
    {
      "constant": true,
      "inputs": [
        {
          "name": "_tokenId",
          "type": "uint256"
        }
      ],
      "name": "ownerOf",
      "outputs": [
        {
          "name": "owner",
          "type": "address"
        }
      ],
      "payable": false,
      "stateMutability": "view",
      "type": "function"
    },
    {
      "constant": false,
      "inputs": [
        {
          "name": "_to",
          "type": "address"
        }
      ],
      "name": "payout",
      "outputs": [],
      "payable": false,
      "stateMutability": "nonpayable",
      "type": "function"
    },
    {
      "constant": false,
      "inputs": [
        {
          "name": "_tokenId",
          "type": "uint256"
        }
      ],
      "name": "purchase",
      "outputs": [],
      "payable": true,
      "stateMutability": "payable",
      "type": "function"
    },
    {
      "constant": true,
      "inputs": [
        {
          "name": "_tokenId",
          "type": "uint256"
        }
      ],
      "name": "priceOf",
      "outputs": [
        {
          "name": "price",
          "type": "uint256"
        }
      ],
      "payable": false,
      "stateMutability": "view",
      "type": "function"
    },
    {
      "constant": true,
      "inputs": [
        {
          "name": "_tokenId",
          "type": "uint256"
        }
      ],
      "name": "transactionCountOf",
      "outputs": [
        {
          "name": "price",
          "type": "uint256"
        }
      ],
      "payable": false,
      "stateMutability": "view",
      "type": "function"
    },
    {
      "constant": false,
      "inputs": [
        {
          "name": "_newCEO",
          "type": "address"
        }
      ],
      "name": "setCEO",
      "outputs": [],
      "payable": false,
      "stateMutability": "nonpayable",
      "type": "function"
    },
    {
      "constant": true,
      "inputs": [],
      "name": "symbol",
      "outputs": [
        {
          "name": "",
          "type": "string"
        }
      ],
      "payable": false,
      "stateMutability": "pure",
      "type": "function"
    },
    {
      "constant": false,
      "inputs": [
        {
          "name": "_tokenId",
          "type": "uint256"
        }
      ],
      "name": "takeOwnership",
      "outputs": [],
      "payable": false,
      "stateMutability": "nonpayable",
      "type": "function"
    },
    {
      "constant": true,
      "inputs": [
        {
          "name": "_owner",
          "type": "address"
        }
      ],
      "name": "tokensOfOwner",
      "outputs": [
        {
          "name": "ownerTokens",
          "type": "uint256[]"
        }
      ],
      "payable": false,
      "stateMutability": "view",
      "type": "function"
    },
    {
      "constant": true,
      "inputs": [],
      "name": "totalSupply",
      "outputs": [
        {
          "name": "total",
          "type": "uint256"
        }
      ],
      "payable": false,
      "stateMutability": "view",
      "type": "function"
    },
    {
      "constant": false,
      "inputs": [
        {
          "name": "_to",
          "type": "address"
        },
        {
          "name": "_tokenId",
          "type": "uint256"
        }
      ],
      "name": "transfer",
      "outputs": [],
      "payable": false,
      "stateMutability": "nonpayable",
      "type": "function"
    },
    {
      "constant": false,
      "inputs": [
        {
          "name": "_from",
          "type": "address"
        },
        {
          "name": "_to",
          "type": "address"
        },
        {
          "name": "_tokenId",
          "type": "uint256"
        }
      ],
      "name": "transferFrom",
      "outputs": [],
      "payable": false,
      "stateMutability": "nonpayable",
      "type": "function"
    }
  ],
  "bytecode": "0x6080604052678ac7230489e800006005553480156200001d57600080fd5b50620000366301ffc9a760e01b6200009560201b60201c565b6200004e6380ac58cd60e01b6200009560201b60201c565b33600b60006101000a81548173ffffffffffffffffffffffffffffffffffffffff021916908373ffffffffffffffffffffffffffffffffffffffff1602179055506200019e565b63ffffffff60e01b817bffffffffffffffffffffffffffffffffffffffffffffffffffffffff1916141562000132576040517f08c379a000000000000000000000000000000000000000000000000000000000815260040180806020018281038252601c8152602001807f4552433136353a20696e76616c696420696e746572666163652069640000000081525060200191505060405180910390fd5b6001600080837bffffffffffffffffffffffffffffffffffffffffffffffffffffffff19167bffffffffffffffffffffffffffffffffffffffffffffffffffffffff1916815260200190815260200160002060006101000a81548160ff02191690831515021790555050565b613ced80620001ae6000396000f3fe6080604052600436106101d85760003560e01c806370a0823111610102578063b88d4fde11610095578063e985e9c511610064578063e985e9c514610eb7578063efef39a114610f40578063f2d05f2b14610f6e578063f76f8d7814610fe9576101d8565b8063b88d4fde14610bdf578063b9186d7d14610cf1578063e55ae4e814610d40578063e94e80fa14610e3c576101d8565b8063a22cb465116100d1578063a22cb46514610a5c578063a3f4df7e14610ab9578063a9059cbb14610b49578063b2e6ceeb14610ba4576101d8565b806370a08231146108725780637f740df5146108d75780638462151c1461092657806395d89b41146109cc576101d8565b80630e9344471161017a57806327d7874c1161014957806327d7874c1461065957806342842e0e146106aa5780635fe736e9146107255780636352211e146107f7576101d8565b80630e934447146104885780631051db341461058457806318160ddd146105b357806323b872dd146105de576101d8565b8063081812fc116101b6578063081812fc1461030a578063095ea7b3146103855780630a0f8168146103e05780630b7e9c4414610437576101d8565b806301ffc9a7146101dd57806305e455461461024f57806306fdde031461027a575b600080fd5b3480156101e957600080fd5b506102356004803603602081101561020057600080fd5b8101908080357bffffffffffffffffffffffffffffffffffffffffffffffffffffffff19169060200190929190505050611079565b604051808215151515815260200191505060405180910390f35b34801561025b57600080fd5b506102646110e0565b6040518082815260200191505060405180910390f35b34801561028657600080fd5b5061028f6110e6565b6040518080602001828103825283818151815260200191508051906020019080838360005b838110156102cf5780820151818401526020810190506102b4565b50505050905090810190601f1680156102fc5780820380516001836020036101000a031916815260200191505b509250505060405180910390f35b34801561031657600080fd5b506103436004803603602081101561032d57600080fd5b8101908080359060200190929190505050611123565b604051808273ffffffffffffffffffffffffffffffffffffffff1673ffffffffffffffffffffffffffffffffffffffff16815260200191505060405180910390f35b34801561039157600080fd5b506103de600480360360408110156103a857600080fd5b81019080803573ffffffffffffffffffffffffffffffffffffffff169060200190929190803590602001909291905050506111be565b005b3480156103ec57600080fd5b506103f56112eb565b604051808273ffffffffffffffffffffffffffffffffffffffff1673ffffffffffffffffffffffffffffffffffffffff16815260200191505060405180910390f35b34801561044357600080fd5b506104866004803603602081101561045a57600080fd5b81019080803573ffffffffffffffffffffffffffffffffffffffff169060200190929190505050611311565b005b34801561049457600080fd5b50610582600480360360808110156104ab57600080fd5b81019080803573ffffffffffffffffffffffffffffffffffffffff169060200190929190803590602001906401000000008111156104e857600080fd5b8201836020820111156104fa57600080fd5b8035906020019184600183028401116401000000008311171561051c57600080fd5b91908080601f016020809104026020016040519081016040528093929190818152602001838380828437600081840152601f19601f82011690508083019250505050505050919291929080359060200190929190803590602001909291905050506113e0565b005b34801561059057600080fd5b50610599611592565b604051808215151515815260200191505060405180910390f35b3480156105bf57600080fd5b506105c861159b565b6040518082815260200191505060405180910390f35b3480156105ea57600080fd5b506106576004803603606081101561060157600080fd5b81019080803573ffffffffffffffffffffffffffffffffffffffff169060200190929190803573ffffffffffffffffffffffffffffffffffffffff169060200190929190803590602001909291905050506115a8565b005b34801561066557600080fd5b506106a86004803603602081101561067c57600080fd5b81019080803573ffffffffffffffffffffffffffffffffffffffff1690602001909291905050506116d4565b005b3480156106b657600080fd5b50610723600480360360608110156106cd57600080fd5b81019080803573ffffffffffffffffffffffffffffffffffffffff169060200190929190803573ffffffffffffffffffffffffffffffffffffffff1690602001909291908035906020019092919050505061187e565b005b34801561073157600080fd5b506107f56004803603604081101561074857600080fd5b810190808035906020019064010000000081111561076557600080fd5b82018360208201111561077757600080fd5b8035906020019184600183028401116401000000008311171561079957600080fd5b91908080601f016020809104026020016040519081016040528093929190818152602001838380828437600081840152601f19601f8201169050808301925050505050505091929192908035906020019092919050505061189e565b005b34801561080357600080fd5b506108306004803603602081101561081a57600080fd5b8101908080359060200190929190505050611973565b604051808273ffffffffffffffffffffffffffffffffffffffff1673ffffffffffffffffffffffffffffffffffffffff16815260200191505060405180910390f35b34801561087e57600080fd5b506108c16004803603602081101561089557600080fd5b81019080803573ffffffffffffffffffffffffffffffffffffffff169060200190929190505050611a53565b6040518082815260200191505060405180910390f35b3480156108e357600080fd5b50610910600480360360208110156108fa57600080fd5b8101908080359060200190929190505050611a9c565b6040518082815260200191505060405180910390f35b34801561093257600080fd5b506109756004803603602081101561094957600080fd5b81019080803573ffffffffffffffffffffffffffffffffffffffff169060200190929190505050611ab9565b6040518080602001828103825283818151815260200191508051906020019060200280838360005b838110156109b857808201518184015260208101905061099d565b505050509050019250505060405180910390f35b3480156109d857600080fd5b506109e1611c00565b6040518080602001828103825283818151815260200191508051906020019080838360005b83811015610a21578082015181840152602081019050610a06565b50505050905090810190601f168015610a4e5780820380516001836020036101000a031916815260200191505b509250505060405180910390f35b348015610a6857600080fd5b50610ab760048036036040811015610a7f57600080fd5b81019080803573ffffffffffffffffffffffffffffffffffffffff169060200190929190803515159060200190929190505050611c3d565b005b348015610ac557600080fd5b50610ace611df5565b6040518080602001828103825283818151815260200191508051906020019080838360005b83811015610b0e578082015181840152602081019050610af3565b50505050905090810190601f168015610b3b5780820380516001836020036101000a031916815260200191505b509250505060405180910390f35b348015610b5557600080fd5b50610ba260048036036040811015610b6c57600080fd5b81019080803573ffffffffffffffffffffffffffffffffffffffff16906020019092919080359060200190929190505050611e2e565b005b348015610bb057600080fd5b50610bdd60048036036020811015610bc757600080fd5b8101908080359060200190929190505050611efa565b005b348015610beb57600080fd5b50610cef60048036036080811015610c0257600080fd5b81019080803573ffffffffffffffffffffffffffffffffffffffff169060200190929190803573ffffffffffffffffffffffffffffffffffffffff1690602001909291908035906020019092919080359060200190640100000000811115610c6957600080fd5b820183602082011115610c7b57600080fd5b80359060200191846001830284011164010000000083111715610c9d57600080fd5b91908080601f016020809104026020016040519081016040528093929190818152602001838380828437600081840152601f19601f820116905080830192505050505050509192919290505050611fb8565b005b348015610cfd57600080fd5b50610d2a60048036036020811015610d1457600080fd5b8101908080359060200190929190505050612030565b6040518082815260200191505060405180910390f35b348015610d4c57600080fd5b50610d7960048036036020811015610d6357600080fd5b810190808035906020019092919050505061204d565b60405180806020018681526020018581526020018473ffffffffffffffffffffffffffffffffffffffff1673ffffffffffffffffffffffffffffffffffffffff168152602001838152602001828103825287818151815260200191508051906020019080838360005b83811015610dfd578082015181840152602081019050610de2565b50505050905090810190601f168015610e2a5780820380516001836020036101000a031916815260200191505b50965050505050505060405180910390f35b348015610e4857600080fd5b50610e7560048036036020811015610e5f57600080fd5b8101908080359060200190929190505050612186565b604051808273ffffffffffffffffffffffffffffffffffffffff1673ffffffffffffffffffffffffffffffffffffffff16815260200191505060405180910390f35b348015610ec357600080fd5b50610f2660048036036040811015610eda57600080fd5b81019080803573ffffffffffffffffffffffffffffffffffffffff169060200190929190803573ffffffffffffffffffffffffffffffffffffffff1690602001909291905050506121b9565b604051808215151515815260200191505060405180910390f35b610f6c60048036036020811015610f5657600080fd5b810190808035906020019092919050505061224d565b005b348015610f7a57600080fd5b50610fa760048036036020811015610f9157600080fd5b8101908080359060200190929190505050612729565b604051808273ffffffffffffffffffffffffffffffffffffffff1673ffffffffffffffffffffffffffffffffffffffff16815260200191505060405180910390f35b348015610ff557600080fd5b50610ffe61275c565b6040518080602001828103825283818151815260200191508051906020019080838360005b8381101561103e578082015181840152602081019050611023565b50505050905090810190601f16801561106b5780820380516001836020036101000a031916815260200191505b509250505060405180910390f35b6000806000837bffffffffffffffffffffffffffffffffffffffffffffffffffffffff19167bffffffffffffffffffffffffffffffffffffffffffffffffffffffff1916815260200190815260200160002060009054906101000a900460ff169050919050565b600c5481565b60606040518060400160405280600d81526020017f536f63636572506c617965727300000000000000000000000000000000000000815250905090565b600061112e82612795565b611183576040517f08c379a000000000000000000000000000000000000000000000000000000000815260040180806020018281038252602c815260200180613bec602c913960400191505060405180910390fd5b6002600083815260200190815260200160002060009054906101000a900473ffffffffffffffffffffffffffffffffffffffff169050919050565b6111c83382612807565b61123a576040517f08c379a00000000000000000000000000000000000000000000000000000000081526004018080602001828103825260178152602001807f63616c6c206d757374206f776e2074686520746f6b656e00000000000000000081525060200191505060405180910390fd5b816008600083815260200190815260200160002060006101000a81548173ffffffffffffffffffffffffffffffffffffffff021916908373ffffffffffffffffffffffffffffffffffffffff160217905550808273ffffffffffffffffffffffffffffffffffffffff163373ffffffffffffffffffffffffffffffffffffffff167f8c5be1e5ebec7d5bd14f71427d1e84f3dd0314c0f7b2291e5b200ac8c7c3b92560405160405180910390a45050565b600b60009054906101000a900473ffffffffffffffffffffffffffffffffffffffff1681565b600b60009054906101000a900473ffffffffffffffffffffffffffffffffffffffff1673ffffffffffffffffffffffffffffffffffffffff163373ffffffffffffffffffffffffffffffffffffffff16146113d4576040517f08c379a000000000000000000000000000000000000000000000000000000000815260040180806020018281038252601f8152602001807f73656e646572206d757374206265206120636f6e7472616374206f776e65720081525060200191505060405180910390fd5b6113dd81612873565b50565b600b60009054906101000a900473ffffffffffffffffffffffffffffffffffffffff1673ffffffffffffffffffffffffffffffffffffffff163373ffffffffffffffffffffffffffffffffffffffff16146114a3576040517f08c379a00000000000000000000000000000000000000000000000000000000081526004018080602001828103825260138152602001807f73656e646572206d757374207468652063656f0000000000000000000000000081525060200191505060405180910390fd5b611388600c54106114ff576040517f08c379a0000000000000000000000000000000000000000000000000000000008152600401808060200182810382526029815260200180613c996029913960400191505060405180910390fd5b6000849050600073ffffffffffffffffffffffffffffffffffffffff168173ffffffffffffffffffffffffffffffffffffffff16141561155f57600b60009054906101000a900473ffffffffffffffffffffffffffffffffffffffff1690505b6000831161156d5760055492505b600c6000815480929190600101919050555061158b8482858561298f565b5050505050565b60006001905090565b6000600d80549050905090565b6115b28382612807565b611607576040517f08c379a0000000000000000000000000000000000000000000000000000000008152600401808060200182810382526028815260200180613b7f6028913960400191505060405180910390fd5b6116118282612b8b565b611666576040517f08c379a0000000000000000000000000000000000000000000000000000000008152600401808060200182810382526024815260200180613ba76024913960400191505060405180910390fd5b61166f82612bf7565b6116c4576040517f08c379a0000000000000000000000000000000000000000000000000000000008152600401808060200182810382526021815260200180613ae76021913960400191505060405180910390fd5b6116cf838383612c30565b505050565b600b60009054906101000a900473ffffffffffffffffffffffffffffffffffffffff1673ffffffffffffffffffffffffffffffffffffffff163373ffffffffffffffffffffffffffffffffffffffff1614611797576040517f08c379a00000000000000000000000000000000000000000000000000000000081526004018080602001828103825260138152602001807f73656e646572206d757374207468652063656f0000000000000000000000000081525060200191505060405180910390fd5b600073ffffffffffffffffffffffffffffffffffffffff168173ffffffffffffffffffffffffffffffffffffffff16141561183a576040517f08c379a000000000000000000000000000000000000000000000000000000000815260040180806020018281038252601f8152602001807f6e65772043454f20616464726573732073686f756c642062652076616c69640081525060200191505060405180910390fd5b80600b60006101000a81548173ffffffffffffffffffffffffffffffffffffffff021916908373ffffffffffffffffffffffffffffffffffffffff16021790555050565b61189983838360405180602001604052806000815250611fb8565b505050565b600b60009054906101000a900473ffffffffffffffffffffffffffffffffffffffff1673ffffffffffffffffffffffffffffffffffffffff163373ffffffffffffffffffffffffffffffffffffffff1614611961576040517f08c379a00000000000000000000000000000000000000000000000000000000081526004018080602001828103825260138152602001807f73656e646572206d757374207468652063656f0000000000000000000000000081525060200191505060405180910390fd5b61196f82306005548461298f565b5050565b60006006600083815260200190815260200160002060009054906101000a900473ffffffffffffffffffffffffffffffffffffffff169050600073ffffffffffffffffffffffffffffffffffffffff168173ffffffffffffffffffffffffffffffffffffffff161415611a4e576040517f08c379a000000000000000000000000000000000000000000000000000000000815260040180806020018281038252601f8152602001807f6f776e65722073686f756c6420686176652076616c696420616464726573730081525060200191505060405180910390fd5b919050565b6000600760008373ffffffffffffffffffffffffffffffffffffffff1673ffffffffffffffffffffffffffffffffffffffff168152602001908152602001600020549050919050565b6000600a6000838152602001908152602001600020549050919050565b60606000611ac683611a53565b90506000811415611b0a576000604051908082528060200260200182016040528015611b015781602001602082028038833980820191505090505b50915050611bfb565b606081604051908082528060200260200182016040528015611b3b5781602001602082028038833980820191505090505b5090506000611b4861159b565b9050600080905060008090505b828111611bf2578673ffffffffffffffffffffffffffffffffffffffff166006600083815260200190815260200160002060009054906101000a900473ffffffffffffffffffffffffffffffffffffffff1673ffffffffffffffffffffffffffffffffffffffff161415611be55780848381518110611bd057fe5b60200260200101818152505081806001019250505b8080600101915050611b55565b83955050505050505b919050565b60606040518060400160405280600d81526020017f536f63636572506c617965727300000000000000000000000000000000000000815250905090565b611c45612e30565b73ffffffffffffffffffffffffffffffffffffffff168273ffffffffffffffffffffffffffffffffffffffff161415611ce6576040517f08c379a00000000000000000000000000000000000000000000000000000000081526004018080602001828103825260198152602001807f4552433732313a20617070726f766520746f2063616c6c65720000000000000081525060200191505060405180910390fd5b8060046000611cf3612e30565b73ffffffffffffffffffffffffffffffffffffffff1673ffffffffffffffffffffffffffffffffffffffff16815260200190815260200160002060008473ffffffffffffffffffffffffffffffffffffffff1673ffffffffffffffffffffffffffffffffffffffff16815260200190815260200160002060006101000a81548160ff0219169083151502179055508173ffffffffffffffffffffffffffffffffffffffff16611da0612e30565b73ffffffffffffffffffffffffffffffffffffffff167f17307eab39ab6107e8899845ad3d59bd9653f200f220920489ca2b5937696c3183604051808215151515815260200191505060405180910390a35050565b6040518060400160405280600d81526020017f536f63636572506c61796572730000000000000000000000000000000000000081525081565b611e383382612807565b611e8d576040517f08c379a0000000000000000000000000000000000000000000000000000000008152600401808060200182810382526027815260200180613c416027913960400191505060405180910390fd5b611e9682612bf7565b611eeb576040517f08c379a0000000000000000000000000000000000000000000000000000000008152600401808060200182810382526021815260200180613ae76021913960400191505060405180910390fd5b611ef6338383612c30565b5050565b600033905060006006600084815260200190815260200160002060009054906101000a900473ffffffffffffffffffffffffffffffffffffffff169050611f4082612bf7565b611f95576040517f08c379a0000000000000000000000000000000000000000000000000000000008152600401808060200182810382526025815260200180613a906025913960400191505060405180910390fd5b611f9f8284612b8b565b611fa857600080fd5b611fb3818385612c30565b505050565b611fc9611fc3612e30565b83612e38565b61201e576040517f08c379a0000000000000000000000000000000000000000000000000000000008152600401808060200182810382526031815260200180613c686031913960400191505060405180910390fd5b61202a84848484612f2c565b50505050565b600060096000838152602001908152602001600020549050919050565b60606000806000806000600d878154811061206457fe5b90600052602060002090600202019050806000018054600181600116156101000203166002900480601f01602080910402602001604051908101604052809291908181526020018280546001816001161561010002031660029004801561210c5780601f106120e15761010080835404028352916020019161210c565b820191906000526020600020905b8154815290600101906020018083116120ef57829003601f168201915b5050505050955080600101549450600960008881526020019081526020016000205493506006600088815260200190815260200160002060009054906101000a900473ffffffffffffffffffffffffffffffffffffffff169250600a60008881526020019081526020016000205491505091939590929450565b60086020528060005260406000206000915054906101000a900473ffffffffffffffffffffffffffffffffffffffff1681565b6000600460008473ffffffffffffffffffffffffffffffffffffffff1673ffffffffffffffffffffffffffffffffffffffff16815260200190815260200160002060008373ffffffffffffffffffffffffffffffffffffffff1673ffffffffffffffffffffffffffffffffffffffff16815260200190815260200160002060009054906101000a900460ff16905092915050565b60006006600083815260200190815260200160002060009054906101000a900473ffffffffffffffffffffffffffffffffffffffff16905060003390506000600960008581526020019081526020016000205490508173ffffffffffffffffffffffffffffffffffffffff168373ffffffffffffffffffffffffffffffffffffffff161415612344576040517f08c379a00000000000000000000000000000000000000000000000000000000081526004018080602001828103825260148152602001807f63616e6e6f742073656c6620707572636861736500000000000000000000000081525060200191505060405180910390fd5b61234d82612bf7565b6123a2576040517f08c379a0000000000000000000000000000000000000000000000000000000008152600401808060200182810382526027815260200180613b586027913960400191505060405180910390fd5b803410156123fb576040517f08c379a0000000000000000000000000000000000000000000000000000000008152600401808060200182810382526031815260200180613a5f6031913960400191505060405180910390fd5b6000819050600061240c3484612f9e565b905061242c8361242761242086600f612fe8565b606461306e565b6130b8565b600960008881526020019081526020016000208190555061244e858588612c30565b7f739b5014c7224bca337ffcf91eae66fcabc0fc4e06350060bfb219b30b511247868686604051808481526020018373ffffffffffffffffffffffffffffffffffffffff1673ffffffffffffffffffffffffffffffffffffffff1681526020018273ffffffffffffffffffffffffffffffffffffffff1673ffffffffffffffffffffffffffffffffffffffff168152602001935050505060405180910390a13073ffffffffffffffffffffffffffffffffffffffff168573ffffffffffffffffffffffffffffffffffffffff1614612568578473ffffffffffffffffffffffffffffffffffffffff166108fc839081150290604051600060405180830381858888f19350505050158015612566573d6000803e3d6000fd5b505b6001600a60008881526020019081526020016000205401600a6000888152602001908152602001600020819055508373ffffffffffffffffffffffffffffffffffffffff16867e8201e7bcbf010c2c07de59d6e97cb7e3cf67a46125c49cbc89b9d2cde1f48f85600960008b81526020019081526020016000205489600d8c815481106125f157fe5b9060005260206000209060020201600001604051808581526020018481526020018373ffffffffffffffffffffffffffffffffffffffff1673ffffffffffffffffffffffffffffffffffffffff168152602001806020018281038252838181546001816001161561010002031660029004815260200191508054600181600116156101000203166002900480156126c95780601f1061269e576101008083540402835291602001916126c9565b820191906000526020600020905b8154815290600101906020018083116126ac57829003601f168201915b50509550505050505060405180910390a33373ffffffffffffffffffffffffffffffffffffffff166108fc829081150290604051600060405180830381858888f19350505050158015612720573d6000803e3d6000fd5b50505050505050565b60066020528060005260406000206000915054906101000a900473ffffffffffffffffffffffffffffffffffffffff1681565b6040518060400160405280600d81526020017f536f63636572506c61796572730000000000000000000000000000000000000081525081565b6000806001600084815260200190815260200160002060009054906101000a900473ffffffffffffffffffffffffffffffffffffffff169050600073ffffffffffffffffffffffffffffffffffffffff168173ffffffffffffffffffffffffffffffffffffffff161415915050919050565b60006006600083815260200190815260200160002060009054906101000a900473ffffffffffffffffffffffffffffffffffffffff1673ffffffffffffffffffffffffffffffffffffffff168373ffffffffffffffffffffffffffffffffffffffff1614905092915050565b600073ffffffffffffffffffffffffffffffffffffffff168173ffffffffffffffffffffffffffffffffffffffff16141561292d57600b60009054906101000a900473ffffffffffffffffffffffffffffffffffffffff1673ffffffffffffffffffffffffffffffffffffffff166108fc3073ffffffffffffffffffffffffffffffffffffffff16319081150290604051600060405180830381858888f19350505050158015612927573d6000803e3d6000fd5b5061298c565b8073ffffffffffffffffffffffffffffffffffffffff166108fc3073ffffffffffffffffffffffffffffffffffffffff16319081150290604051600060405180830381858888f1935050505015801561298a573d6000803e3d6000fd5b505b50565b61299761399f565b604051806040016040528086815260200183815250905060006001600d839080600181540180825580915050906001820390600052602060002090600202016000909192909190915060008201518160000190805190602001906129fc9291906139b9565b506020820151816001015550500390508063ffffffff168114612a87576040517f08c379a000000000000000000000000000000000000000000000000000000000815260040180806020018281038252601b8152602001807f6e657720706c61796572206964206d7573742062652076616c6964000000000081525060200191505060405180910390fd5b7fb3b0cf861f168bcdb275c69da97b2543631552ba562628aa3c7317d4a6089ef281878760405180848152602001806020018373ffffffffffffffffffffffffffffffffffffffff1673ffffffffffffffffffffffffffffffffffffffff168152602001828103825284818151815260200191508051906020019080838360005b83811015612b23578082015181840152602081019050612b08565b50505050905090810190601f168015612b505780820380516001836020036101000a031916815260200191505b5094505050505060405180910390a1836009600083815260200190815260200160002081905550612b8360008683612c30565b505050505050565b60008273ffffffffffffffffffffffffffffffffffffffff166008600084815260200190815260200160002060009054906101000a900473ffffffffffffffffffffffffffffffffffffffff1673ffffffffffffffffffffffffffffffffffffffff1614905092915050565b60008073ffffffffffffffffffffffffffffffffffffffff168273ffffffffffffffffffffffffffffffffffffffff1614159050919050565b600760008373ffffffffffffffffffffffffffffffffffffffff1673ffffffffffffffffffffffffffffffffffffffff16815260200190815260200160002060008154809291906001019190505550816006600083815260200190815260200160002060006101000a81548173ffffffffffffffffffffffffffffffffffffffff021916908373ffffffffffffffffffffffffffffffffffffffff160217905550600073ffffffffffffffffffffffffffffffffffffffff168373ffffffffffffffffffffffffffffffffffffffff1614612d8c57600760008473ffffffffffffffffffffffffffffffffffffffff1673ffffffffffffffffffffffffffffffffffffffff16815260200190815260200160002060008154809291906001900391905055506008600082815260200190815260200160002060006101000a81549073ffffffffffffffffffffffffffffffffffffffff02191690555b7fddf252ad1be2c89b69c2b068fc378daa952ba7f163c4a11628f55a4df523b3ef838383604051808473ffffffffffffffffffffffffffffffffffffffff1673ffffffffffffffffffffffffffffffffffffffff1681526020018373ffffffffffffffffffffffffffffffffffffffff1673ffffffffffffffffffffffffffffffffffffffff168152602001828152602001935050505060405180910390a1505050565b600033905090565b6000612e4382612795565b612e98576040517f08c379a000000000000000000000000000000000000000000000000000000000815260040180806020018281038252602c815260200180613b2c602c913960400191505060405180910390fd5b6000612ea383611973565b90508073ffffffffffffffffffffffffffffffffffffffff168473ffffffffffffffffffffffffffffffffffffffff161480612f1257508373ffffffffffffffffffffffffffffffffffffffff16612efa84611123565b73ffffffffffffffffffffffffffffffffffffffff16145b80612f235750612f2281856121b9565b5b91505092915050565b612f37848484613140565b612f438484848461339b565b612f98576040517f08c379a0000000000000000000000000000000000000000000000000000000008152600401808060200182810382526032815260200180613ab56032913960400191505060405180910390fd5b50505050565b6000612fe083836040518060400160405280601e81526020017f536166654d6174683a207375627472616374696f6e206f766572666c6f7700008152506136d7565b905092915050565b600080831415612ffb5760009050613068565b600082840290508284828161300c57fe5b0414613063576040517f08c379a0000000000000000000000000000000000000000000000000000000008152600401808060200182810382526021815260200180613bcb6021913960400191505060405180910390fd5b809150505b92915050565b60006130b083836040518060400160405280601a81526020017f536166654d6174683a206469766973696f6e206279207a65726f000000000000815250613797565b905092915050565b600080828401905083811015613136576040517f08c379a000000000000000000000000000000000000000000000000000000000815260040180806020018281038252601b8152602001807f536166654d6174683a206164646974696f6e206f766572666c6f77000000000081525060200191505060405180910390fd5b8091505092915050565b8273ffffffffffffffffffffffffffffffffffffffff1661316082611973565b73ffffffffffffffffffffffffffffffffffffffff16146131cc576040517f08c379a0000000000000000000000000000000000000000000000000000000008152600401808060200182810382526029815260200180613c186029913960400191505060405180910390fd5b600073ffffffffffffffffffffffffffffffffffffffff168273ffffffffffffffffffffffffffffffffffffffff161415613252576040517f08c379a0000000000000000000000000000000000000000000000000000000008152600401808060200182810382526024815260200180613b086024913960400191505060405180910390fd5b61325b8161385d565b6132a2600360008573ffffffffffffffffffffffffffffffffffffffff1673ffffffffffffffffffffffffffffffffffffffff16815260200190815260200160002061391b565b6132e9600360008473ffffffffffffffffffffffffffffffffffffffff1673ffffffffffffffffffffffffffffffffffffffff16815260200190815260200160002061393e565b816001600083815260200190815260200160002060006101000a81548173ffffffffffffffffffffffffffffffffffffffff021916908373ffffffffffffffffffffffffffffffffffffffff160217905550808273ffffffffffffffffffffffffffffffffffffffff168473ffffffffffffffffffffffffffffffffffffffff167fddf252ad1be2c89b69c2b068fc378daa952ba7f163c4a11628f55a4df523b3ef60405160405180910390a4505050565b60006133bc8473ffffffffffffffffffffffffffffffffffffffff16613954565b6133c957600190506136cf565b600060608573ffffffffffffffffffffffffffffffffffffffff168673ffffffffffffffffffffffffffffffffffffffff1663150b7a02905060e01b61340d612e30565b898888604051602401808573ffffffffffffffffffffffffffffffffffffffff1673ffffffffffffffffffffffffffffffffffffffff1681526020018473ffffffffffffffffffffffffffffffffffffffff1673ffffffffffffffffffffffffffffffffffffffff16815260200183815260200180602001828103825283818151815260200191508051906020019080838360005b838110156134bd5780820151818401526020810190506134a2565b50505050905090810190601f1680156134ea5780820380516001836020036101000a031916815260200191505b5095505050505050604051602081830303815290604052907bffffffffffffffffffffffffffffffffffffffffffffffffffffffff19166020820180517bffffffffffffffffffffffffffffffffffffffffffffffffffffffff83818316178352505050506040518082805190602001908083835b60208310613582578051825260208201915060208101905060208303925061355f565b6001836020036101000a0380198251168184511680821785525050505050509050019150506000604051808303816000865af19150503d80600081146135e4576040519150601f19603f3d011682016040523d82523d6000602084013e6135e9565b606091505b509150915081613657576000815111156136065780518082602001fd5b6040517f08c379a0000000000000000000000000000000000000000000000000000000008152600401808060200182810382526032815260200180613ab56032913960400191505060405180910390fd5b600081806020019051602081101561366e57600080fd5b8101908080519060200190929190505050905063150b7a0260e01b7bffffffffffffffffffffffffffffffffffffffffffffffffffffffff1916817bffffffffffffffffffffffffffffffffffffffffffffffffffffffff19161493505050505b949350505050565b6000838311158290613784576040517f08c379a00000000000000000000000000000000000000000000000000000000081526004018080602001828103825283818151815260200191508051906020019080838360005b8381101561374957808201518184015260208101905061372e565b50505050905090810190601f1680156137765780820380516001836020036101000a031916815260200191505b509250505060405180910390fd5b5060008385039050809150509392505050565b60008083118290613843576040517f08c379a00000000000000000000000000000000000000000000000000000000081526004018080602001828103825283818151815260200191508051906020019080838360005b838110156138085780820151818401526020810190506137ed565b50505050905090810190601f1680156138355780820380516001836020036101000a031916815260200191505b509250505060405180910390fd5b50600083858161384f57fe5b049050809150509392505050565b600073ffffffffffffffffffffffffffffffffffffffff166002600083815260200190815260200160002060009054906101000a900473ffffffffffffffffffffffffffffffffffffffff1673ffffffffffffffffffffffffffffffffffffffff16146139185760006002600083815260200190815260200160002060006101000a81548173ffffffffffffffffffffffffffffffffffffffff021916908373ffffffffffffffffffffffffffffffffffffffff1602179055505b50565b61393360018260000154612f9e90919063ffffffff16565b816000018190555050565b6001816000016000828254019250508190555050565b60008060007fc5d2460186f7233c927e7db2dcc703c0e500b653ca82273b7bfad8045d85a47060001b9050833f915080821415801561399657506000801b8214155b92505050919050565b604051806040016040528060608152602001600081525090565b828054600181600116156101000203166002900490600052602060002090601f016020900481019282601f106139fa57805160ff1916838001178555613a28565b82800160010185558215613a28579182015b82811115613a27578251825591602001919060010190613a0c565b5b509050613a359190613a39565b5090565b613a5b91905b80821115613a57576000816000905550600101613a3f565b5090565b9056fe70757263686173652076616c7565206d7573742062652067726561746572207468616e2073656c6c696e672070726963656e6577206f776e65722073686f756c64206861766520612076616c696420616464726573734552433732313a207472616e7366657220746f206e6f6e20455243373231526563656976657220696d706c656d656e7465727472616e7366657220746f2061646472657373206d7573742062652076616c69644552433732313a207472616e7366657220746f20746865207a65726f20616464726573734552433732313a206f70657261746f7220717565727920666f72206e6f6e6578697374656e7420746f6b656e6e6577206f776e65722073686f756c6420686176652061206e6f6e2d6e696c20616464726573737472616e736665722066726f6d2061646472657373206d757374206f776e2074686520746f6b656e7472616e7366657220746f2061646472657373206d75737420626520617070726f766564536166654d6174683a206d756c7469706c69636174696f6e206f766572666c6f774552433732313a20617070726f76656420717565727920666f72206e6f6e6578697374656e7420746f6b656e4552433732313a207472616e73666572206f6620746f6b656e2074686174206973206e6f74206f776e73656e6465722073686f756c64206f776e2074686520746f6b656e20746f207472616e736665724552433732313a207472616e736665722063616c6c6572206973206e6f74206f776e6572206e6f7220617070726f76656470726f6d6f20706c61796572206372656174696f6e2063616e6e6f7420657863656564206c696d6974a165627a7a72305820800eb0d29b41d5f1b634697490ad0f4778e51ae70ad42b344c8e3d724ca61bc90029",
  "source": "pragma solidity >=0.4.21 <0.6.0;\n\nimport \"openzeppelin-solidity/contracts/math/SafeMath.sol\";\nimport \"openzeppelin-solidity/contracts/token/ERC721/ERC721.sol\";\n\ncontract SoccerPlayers is ERC721 {\n\n    /*** EVENTS ***/\n\n    /// @dev The Birth event is fired whenever a new player comes into existence.\n    event Birth(uint256 tokenId, string name, address owner);\n    event Snatch(uint256 tokenId, address oldOwner, address newOwner);\n\n    /// @dev The TokenSold event is fired whenever a token is sold.\n    event TokenSold(\n        uint256 indexed tokenId,\n        uint256 oldPrice,\n        uint256 newPrice,\n        address prevOwner,\n        address indexed winner,\n        string name\n    );\n\n    /// @dev Transfer event as defined in current draft of ERC721.\n    /// ownership is assigned, including births.\n    event Transfer(address from, address to, uint256 tokenId);\n\n    /*** CONSTANTS ***/\n\n    /// @notice Name and symbol of the non fungible token, as defined in ERC721.\n    string public constant NAME = \"SoccerPlayers\";\n    string public constant SYMBOL = \"SoccerPlayers\";\n\n    uint256 private startingPrice = 10000000000000000000; // 10 ONEs\n    uint256 private constant PROMO_CREATION_LIMIT = 5000;\n\n    /*** STORAGE ***/\n\n    /// @dev A mapping from player IDs to the address that owns them. All players have\n    ///    some valid owner address.\n    mapping (uint256 => address) public playerIndexToOwner;\n\n    // @dev A mapping from owner address to count of tokens that address owns.\n    //    Used internally inside balanceOf() to resolve ownership count.\n    mapping (address => uint256) private ownershipTokenCount;\n\n    /// @dev A mapping from PlayerIDs to an address that has been approved to call\n    ///    transferFrom(). Each Player can only have one approved address for transfer\n    ///    at any time. A zero value means no approval is outstanding.\n    mapping (uint256 => address) public playerIndexToApproved;\n\n    // @dev A mapping from PlayerIDs to the price of the token.\n    mapping (uint256 => uint256) private playerIndexToPrice;\n\n    // @dev A mapping from PlayerIDs to the number of transactions.\n    mapping (uint256 => uint256) private playerIndexToTxns;\n\n    // The addresses of the accounts (or contracts) that can execute actions within each roles.\n    address public ceoAddress;\n\n    uint256 public promoCreatedCount;\n\n    /*** DATATYPES ***/\n    struct Player {\n        string name;\n        uint256 internalPlayerId;\n    }\n\n    Player[] private players;\n\n    /*** ACCESS MODIFIERS ***/\n    /// @dev Access modifier for CEO-only functionality\n    modifier onlyCEO() {\n        require(msg.sender == ceoAddress, \"sender must the ceo\");\n        _;\n    }\n\n    /// Access modifier for contract owner only functionality\n    modifier onlyCLevel() {\n        require(msg.sender == ceoAddress, \"sender must be a contract owner\");\n        _;\n    }\n\n    /*** CONSTRUCTOR ***/\n    constructor() public {\n        ceoAddress = msg.sender;\n    }\n\n    /*** PUBLIC FUNCTIONS ***/\n    /// @notice Grant another address the right to transfer token via takeOwnership() and transferFrom().\n    /// @param _to The address to be granted transfer approval. Pass address(0) to\n    ///    clear all approvals.\n    /// @param _tokenId The ID of the Token that can be transferred if this call succeeds.\n    /// @dev Required for ERC-721 compliance.\n    function approve(\n        address _to,\n        uint256 _tokenId\n    ) public {\n        // Caller must own token.\n        require(_owns(msg.sender, _tokenId), \"call must own the token\");\n\n        playerIndexToApproved[_tokenId] = _to;\n\n        emit Approval(msg.sender, _to, _tokenId);\n    }\n\n    /// For querying balance of a particular account\n    /// @param _owner The address for balance query\n    /// @dev Required for ERC-721 compliance.\n    function balanceOf(address _owner) public view returns (uint256 balance) {\n        return ownershipTokenCount[_owner];\n    }\n\n    /// @dev Creates a new promo Player with the given name, with given _price and assignes it to an address.\n    function createPromoPlayer(address _owner, string memory _name, uint256 _price, uint256 _internalPlayerId) public onlyCEO {\n        require(promoCreatedCount < PROMO_CREATION_LIMIT, \"promo player creation cannot exceed limit\");\n\n        address playerOwner = _owner;\n        if (playerOwner == address(0)) {\n            playerOwner = ceoAddress;\n        }\n\n        if (_price <= 0) {\n            _price = startingPrice;\n        }\n\n        promoCreatedCount++;\n        _createPlayer(_name, playerOwner, _price, _internalPlayerId);\n    }\n\n    /// @dev Creates a new Player with the given name.\n    function createContractPlayer(string memory _name, uint256 _internalPlayerId) public onlyCEO {\n        _createPlayer(_name, address(this), startingPrice, _internalPlayerId);\n    }\n\n    /// @notice Returns all the relevant information about a specific player.\n    /// @param _tokenId The tokenId of the player of interest.\n    function getPlayer(uint256 _tokenId) public view returns (\n        string memory playerName,\n        uint256 internalPlayerId,\n        uint256 sellingPrice,\n        address owner,\n        uint256 transactionCount\n    ) {\n        Player storage player = players[_tokenId];\n        playerName = player.name;\n        internalPlayerId = player.internalPlayerId;\n        sellingPrice = playerIndexToPrice[_tokenId];\n        owner = playerIndexToOwner[_tokenId];\n        transactionCount = playerIndexToTxns[_tokenId];\n    }\n\n    function implementsERC721() public pure returns (bool) {\n        return true;\n    }\n\n    /// @dev Required for ERC-721 compliance.\n    function name() public pure returns (string memory) {\n        return NAME;\n    }\n\n    /// For querying owner of token\n    /// @param _tokenId The tokenID for owner inquiry\n    /// @dev Required for ERC-721 compliance.\n    function ownerOf(uint256 _tokenId)\n        public\n        view\n        returns (address owner)\n    {\n        owner = playerIndexToOwner[_tokenId];\n        require(owner != address(0), \"owner should have valid address\");\n    }\n\n    function payout(address _to) public onlyCLevel {\n        _payout(_to);\n    }\n\n    // Allows someone to send ether and obtain the token\n    function purchase(uint256 _tokenId) public payable {\n        address oldOwner = playerIndexToOwner[_tokenId];\n        address newOwner = msg.sender;\n\n        uint256 sellingPrice = playerIndexToPrice[_tokenId];\n\n        // Making sure token owner is not sending to self\n        require(oldOwner != newOwner, \"cannot self purchase\");\n\n        // Safety check to prevent against an unexpected 0x0 default.\n        require(_addressNotNull(newOwner), \"new owner should have a non-nil address\");\n\n        // Making sure sent amount is greater than or equal to the sellingPrice\n        require(msg.value >= sellingPrice, \"purchase value must be greater than selling price\");\n\n        uint256 payment = sellingPrice; // could cut commission later\n        uint256 purchaseExcess = SafeMath.sub(msg.value, sellingPrice);\n\n        // Update prices\n        playerIndexToPrice[_tokenId] = SafeMath.add(sellingPrice, SafeMath.div(SafeMath.mul(sellingPrice, 15), 100));\n\n        _transfer(oldOwner, newOwner, _tokenId);\n        emit Snatch(_tokenId, oldOwner, newOwner);\n\n        // Pay previous tokenOwner if owner is not contract\n        if (oldOwner != address(this)) {\n            address(uint160(oldOwner)).transfer(payment);\n        }\n\n        playerIndexToTxns[_tokenId] = playerIndexToTxns[_tokenId] + 1;\n        emit TokenSold(_tokenId, sellingPrice, playerIndexToPrice[_tokenId], oldOwner, newOwner, players[_tokenId].name);\n\n        msg.sender.transfer(purchaseExcess);\n    }\n\n    function priceOf(uint256 _tokenId) public view returns (uint256 price) {\n        return playerIndexToPrice[_tokenId];\n    }\n\n    function transactionCountOf(uint256 _tokenId) public view returns (uint256 price) {\n        return playerIndexToTxns[_tokenId];\n    }\n\n    /// @dev Assigns a new address to act as the CEO. Only available to the current CEO.\n    /// @param _newCEO The address of the new CEO\n    function setCEO(address _newCEO) public onlyCEO {\n        require(_newCEO != address(0), \"new CEO address should be valid\");\n\n        ceoAddress = _newCEO;\n    }\n\n    /// @dev Required for ERC-721 compliance.\n    function symbol() public pure returns (string memory) {\n        return SYMBOL;\n    }\n\n    /// @notice Allow pre-approved user to take ownership of a token\n    /// @param _tokenId The ID of the Token that can be transferred if this call succeeds.\n    /// @dev Required for ERC-721 compliance.\n    function takeOwnership(uint256 _tokenId) public {\n        address newOwner = msg.sender;\n        address oldOwner = playerIndexToOwner[_tokenId];\n\n        // Safety check to prevent against an unexpected 0x0 default.\n        require(_addressNotNull(newOwner), \"new owner should have a valid address\");\n\n        // Making sure transfer is approved\n        require(_approved(newOwner, _tokenId));\n\n        _transfer(oldOwner, newOwner, _tokenId);\n    }\n\n    /// @param _owner The owner whose soccer player tokens we are interested in.\n    /// @dev This method MUST NEVER be called by smart contract code. First, it's fairly\n    ///    expensive (it walks the entire Players array looking for players belonging to owner),\n    ///    but it also returns a dynamic array, which is only supported for web3 calls, and\n    ///    not contract-to-contract calls.\n    function tokensOfOwner(address _owner) public view returns(uint256[] memory ownerTokens) {\n        uint256 tokenCount = balanceOf(_owner);\n        if (tokenCount == 0) {\n                // Return an empty array\n            return new uint256[](0);\n        } else {\n            uint256[] memory result = new uint256[](tokenCount);\n            uint256 totalPlayers = totalSupply();\n            uint256 resultIndex = 0;\n\n            uint256 playerId;\n            for (playerId = 0; playerId <= totalPlayers; playerId++) {\n                if (playerIndexToOwner[playerId] == _owner) {\n                    result[resultIndex] = playerId;\n                    resultIndex++;\n                }\n            }\n            return result;\n        }\n    }\n\n    /// For querying totalSupply of token\n    /// @dev Required for ERC-721 compliance.\n    function totalSupply() public view returns (uint256 total) {\n        return players.length;\n    }\n\n    /// Owner initates the transfer of the token to another account\n    /// @param _to The address for the token to be transferred to.\n    /// @param _tokenId The ID of the Token that can be transferred if this call succeeds.\n    /// @dev Required for ERC-721 compliance.\n    function transfer(\n        address _to,\n        uint256 _tokenId\n    ) public {\n        require(_owns(msg.sender, _tokenId), \"sender should own the token to transfer\");\n        require(_addressNotNull(_to), \"transfer to address must be valid\");\n\n        _transfer(msg.sender, _to, _tokenId);\n    }\n\n    /// Third-party initiates transfer of token from address _from to address _to\n    /// @param _from The address for the token to be transferred from.\n    /// @param _to The address for the token to be transferred to.\n    /// @param _tokenId The ID of the Token that can be transferred if this call succeeds.\n    /// @dev Required for ERC-721 compliance.\n    function transferFrom(\n        address _from,\n        address _to,\n        uint256 _tokenId\n    ) public {\n        require(_owns(_from, _tokenId), \"transfer from address must own the token\");\n        require(_approved(_to, _tokenId), \"transfer to address must be approved\");\n        require(_addressNotNull(_to), \"transfer to address must be valid\");\n\n        _transfer(_from, _to, _tokenId);\n    }\n\n    /*** PRIVATE FUNCTIONS ***/\n    /// Safety check on _to address to prevent against an unexpected 0x0 default.\n    function _addressNotNull(address _to) private pure returns (bool) {\n        return _to != address(0);\n    }\n\n    /// For checking approval of transfer for address _to\n    function _approved(address _to, uint256 _tokenId) private view returns (bool) {\n        return playerIndexToApproved[_tokenId] == _to;\n    }\n\n    /// For creating Player\n    function _createPlayer(string memory _name, address _owner, uint256 _price, uint256 _internalPlayerId) private {\n        Player memory _player = Player({\n            name: _name,\n            internalPlayerId: _internalPlayerId\n        });\n        uint256 newPlayerId = players.push(_player) - 1;\n\n        // It's probably never going to happen, 4 billion tokens are A LOT, but\n        // let's just be 100% sure we never let this happen.\n        require(newPlayerId == uint256(uint32(newPlayerId)), \"new player id must be valid\");\n\n        emit Birth(newPlayerId, _name, _owner);\n\n        playerIndexToPrice[newPlayerId] = _price;\n\n        // This will assign ownership, and also emit the Transfer event as\n        // per ERC721 draft\n        _transfer(address(0), _owner, newPlayerId);\n    }\n\n    /// Check for token ownership\n    function _owns(address claimant, uint256 _tokenId) private view returns (bool) {\n        return claimant == playerIndexToOwner[_tokenId];\n    }\n\n    /// For paying out balance on contract\n    function _payout(address _to) private {\n        if (_to == address(0)) {\n            address(uint160(ceoAddress)).transfer(address(this).balance);\n        } else {\n            address(uint160(_to)).transfer(address(this).balance);\n        }\n    }\n\n    /// @dev Assigns ownership of a specific Player to an address.\n    function _transfer(address _from, address _to, uint256 _tokenId) private {\n        // Since the number of players is capped to 2^32 we can't overflow this\n        ownershipTokenCount[_to]++;\n        //transfer ownership\n        playerIndexToOwner[_tokenId] = _to;\n\n        // When creating new players _from is 0x0, but we can't account that address.\n        if (_from != address(0)) {\n            ownershipTokenCount[_from]--;\n            // clear any previously approved ownership exchange\n            delete playerIndexToApproved[_tokenId];\n        }\n\n        // Emit the transfer event.\n        emit Transfer(_from, _to, _tokenId);\n    }\n\n}",
  "sourcePath": "/Users/gupadhyaya/go/src/github.com/harmony-one/soccerplayers/contracts/SoccerPlayers.sol",
  "compiler": {
    "name": "solc",
    "version": "0.5.8+commit.23d335f2.Emscripten.clang"
  },
  "schemaVersion": "3.0.16",
  "updatedAt": "2020-06-25T20:34:53.946Z",
  "devdoc": {
    "methods": {
      "approve(address,uint256)": {
        "details": "Required for ERC-721 compliance.",
        "params": {
          "_to": "The address to be granted transfer approval. Pass address(0) to    clear all approvals.",
          "_tokenId": "The ID of the Token that can be transferred if this call succeeds."
        }
      },
      "balanceOf(address)": {
        "details": "Required for ERC-721 compliance.",
        "params": {
          "_owner": "The address for balance query"
        }
      },
      "createContractPlayer(string,uint256)": {
        "details": "Creates a new Player with the given name."
      },
      "createPromoPlayer(address,string,uint256,uint256)": {
        "details": "Creates a new promo Player with the given name, with given _price and assignes it to an address."
      },
      "getApproved(uint256)": {
        "details": "Gets the approved address for a token ID, or zero if no address set Reverts if the token ID does not exist.",
        "params": {
          "tokenId": "uint256 ID of the token to query the approval of"
        },
        "return": "address currently approved for the given token ID"
      },
      "getPlayer(uint256)": {
        "params": {
          "_tokenId": "The tokenId of the player of interest."
        }
      },
      "isApprovedForAll(address,address)": {
        "details": "Tells whether an operator is approved by a given owner.",
        "params": {
          "operator": "operator address which you want to query the approval of",
          "owner": "owner address which you want to query the approval of"
        },
        "return": "bool whether the given operator is approved by the given owner"
      },
      "name()": {
        "details": "Required for ERC-721 compliance."
      },
      "ownerOf(uint256)": {
        "details": "Required for ERC-721 compliance.",
        "params": {
          "_tokenId": "The tokenID for owner inquiry"
        }
      },
      "safeTransferFrom(address,address,uint256)": {
        "details": "Safely transfers the ownership of a given token ID to another address If the target address is a contract, it must implement {IERC721Receiver-onERC721Received}, which is called upon a safe transfer, and return the magic value `bytes4(keccak256(\"onERC721Received(address,address,uint256,bytes)\"))`; otherwise, the transfer is reverted. Requires the msg.sender to be the owner, approved, or operator",
        "params": {
          "from": "current owner of the token",
          "to": "address to receive the ownership of the given token ID",
          "tokenId": "uint256 ID of the token to be transferred"
        }
      },
      "safeTransferFrom(address,address,uint256,bytes)": {
        "details": "Safely transfers the ownership of a given token ID to another address If the target address is a contract, it must implement {IERC721Receiver-onERC721Received}, which is called upon a safe transfer, and return the magic value `bytes4(keccak256(\"onERC721Received(address,address,uint256,bytes)\"))`; otherwise, the transfer is reverted. Requires the _msgSender() to be the owner, approved, or operator",
        "params": {
          "_data": "bytes data to send along with a safe transfer check",
          "from": "current owner of the token",
          "to": "address to receive the ownership of the given token ID",
          "tokenId": "uint256 ID of the token to be transferred"
        }
      },
      "setApprovalForAll(address,bool)": {
        "details": "Sets or unsets the approval of a given operator An operator is allowed to transfer all tokens of the sender on their behalf.",
        "params": {
          "approved": "representing the status of the approval to be set",
          "to": "operator address to set the approval"
        }
      },
      "setCEO(address)": {
        "details": "Assigns a new address to act as the CEO. Only available to the current CEO.",
        "params": {
          "_newCEO": "The address of the new CEO"
        }
      },
      "supportsInterface(bytes4)": {
        "details": "See {IERC165-supportsInterface}.     * Time complexity O(1), guaranteed to always use less than 30 000 gas."
      },
      "symbol()": {
        "details": "Required for ERC-721 compliance."
      },
      "takeOwnership(uint256)": {
        "details": "Required for ERC-721 compliance.",
        "params": {
          "_tokenId": "The ID of the Token that can be transferred if this call succeeds."
        }
      },
      "tokensOfOwner(address)": {
        "details": "This method MUST NEVER be called by smart contract code. First, it's fairly    expensive (it walks the entire Players array looking for players belonging to owner),    but it also returns a dynamic array, which is only supported for web3 calls, and    not contract-to-contract calls.",
        "params": {
          "_owner": "The owner whose soccer player tokens we are interested in."
        }
      },
      "totalSupply()": {
        "details": "Required for ERC-721 compliance."
      },
      "transfer(address,uint256)": {
        "details": "Required for ERC-721 compliance.",
        "params": {
          "_to": "The address for the token to be transferred to.",
          "_tokenId": "The ID of the Token that can be transferred if this call succeeds."
        }
      },
      "transferFrom(address,address,uint256)": {
        "details": "Required for ERC-721 compliance.",
        "params": {
          "_from": "The address for the token to be transferred from.",
          "_to": "The address for the token to be transferred to.",
          "_tokenId": "The ID of the Token that can be transferred if this call succeeds."
        }
      }
    }
  },
  "userdoc": {
    "methods": {
      "approve(address,uint256)": {
        "notice": "Grant another address the right to transfer token via takeOwnership() and transferFrom()."
      },
      "balanceOf(address)": {
        "notice": "For querying balance of a particular account"
      },
      "constructor": "* CONSTRUCTOR **",
      "getPlayer(uint256)": {
        "notice": "Returns all the relevant information about a specific player."
      },
      "ownerOf(uint256)": {
        "notice": "For querying owner of token"
      },
      "takeOwnership(uint256)": {
        "notice": "Allow pre-approved user to take ownership of a token"
      },
      "totalSupply()": {
        "notice": "For querying totalSupply of token"
      },
      "transfer(address,uint256)": {
        "notice": "Owner initates the transfer of the token to another account"
      },
      "transferFrom(address,address,uint256)": {
        "notice": "Third-party initiates transfer of token from address _from to address _to"
      }
    }
  }
}