{
  "contractName": "TestTransfer",
  "abi": [
    {
      "constant": false,
      "inputs": [],
      "name": "Owner",
      "outputs": [],
      "payable": false,
      "stateMutability": "nonpayable",
      "type": "function"
    },
    {
      "constant": false,
      "inputs": [],
      "name": "Send",
      "outputs": [],
      "payable": true,
      "stateMutability": "payable",
      "type": "function"
    },
    {
      "constant": false,
      "inputs": [],
      "name": "SendBack",
      "outputs": [],
      "payable": true,
      "stateMutability": "payable",
      "type": "function"
    }
  ],
  "bytecode": "0x608060405234801561001057600080fd5b50610185806100206000396000f3fe6080604052600436106100345760003560e01c806392d282c114610039578063b4a99a4e14610043578063f0451cf61461005a575b600080fd5b610041610064565b005b34801561004f57600080fd5b506100586100ce565b005b610062610110565b005b6000809054906101000a900473ffffffffffffffffffffffffffffffffffffffff1673ffffffffffffffffffffffffffffffffffffffff166108fc349081150290604051600060405180830381858888f193505050501580156100cb573d6000803e3d6000fd5b50565b336000806101000a81548173ffffffffffffffffffffffffffffffffffffffff021916908373ffffffffffffffffffffffffffffffffffffffff160217905550565b3373ffffffffffffffffffffffffffffffffffffffff166108fc349081150290604051600060405180830381858888f19350505050158015610156573d6000803e3d6000fd5b5056fea165627a7a72305820e7ad470c1a15d8210ea4871a9c063d170a0c59df72a73dcb6b9b249fbb4a0dbd0029",
  "source": "pragma solidity >=0.4.21 <0.6.0;\n\ncontract TestTransfer {\n    address owner;\n\n    function Owner() public {\n        owner = msg.sender;\n    }\n\n    function Send() public payable {\n        address(uint160(owner)).transfer(msg.value);\n    }\n\n    function SendBack() public payable {\n        msg.sender.transfer(msg.value);\n    }\n}\n",
  "sourcePath": "/Users/gupadhyaya/go/src/github.com/harmony-one/soccerplayers/contracts/TestTransfer.sol",
  "compiler": {
    "name": "solc",
    "version": "0.5.8+commit.23d335f2.Emscripten.clang"
  },
  "schemaVersion": "3.0.16",
  "updatedAt": "2020-06-22T20:14:34.432Z",
  "devdoc": {
    "methods": {}
  },
  "userdoc": {
    "methods": {}
  }
}